{
  "_format": "hh-sol-artifact-1",
  "contractName": "SecondChanceRewardDistributor",
  "sourceName": "contracts/rewards/SecondChanceRewardDistributor.sol",
  "abi": [
    {
      "inputs": [
        {
          "internalType": "address",
          "name": "token",
          "type": "address"
        }
      ],
      "stateMutability": "nonpayable",
      "type": "constructor"
    },
    {
      "anonymous": false,
      "inputs": [
        {
          "indexed": true,
          "internalType": "address",
          "name": "previousOwner",
          "type": "address"
        },
        {
          "indexed": true,
          "internalType": "address",
          "name": "newOwner",
          "type": "address"
        }
      ],
      "name": "OwnershipTransferred",
      "type": "event"
    },
    {
      "anonymous": false,
      "inputs": [
        {
          "indexed": true,
          "internalType": "address",
          "name": "reciever",
          "type": "address"
        },
        {
          "indexed": true,
          "internalType": "uint256",
          "name": "amount",
          "type": "uint256"
        }
      ],
      "name": "RewardWithdraw",
      "type": "event"
    },
    {
      "inputs": [],
      "name": "ReleaseDate",
      "outputs": [
        {
          "internalType": "uint256",
          "name": "",
          "type": "uint256"
        }
      ],
      "stateMutability": "view",
      "type": "function"
    },
    {
      "inputs": [
        {
          "internalType": "address",
          "name": "",
          "type": "address"
        }
      ],
      "name": "RewardAmountClaimed",
      "outputs": [
        {
          "internalType": "uint256",
          "name": "",
          "type": "uint256"
        }
      ],
      "stateMutability": "view",
      "type": "function"
    },
    {
      "inputs": [],
      "name": "RewardToken",
      "outputs": [
        {
          "internalType": "contract IERC20",
          "name": "",
          "type": "address"
        }
      ],
      "stateMutability": "view",
      "type": "function"
    },
    {
      "inputs": [],
      "name": "merkleRoot",
      "outputs": [
        {
          "internalType": "bytes32",
          "name": "",
          "type": "bytes32"
        }
      ],
      "stateMutability": "view",
      "type": "function"
    },
    {
      "inputs": [],
      "name": "owner",
      "outputs": [
        {
          "internalType": "address",
          "name": "",
          "type": "address"
        }
      ],
      "stateMutability": "view",
      "type": "function"
    },
    {
      "inputs": [],
      "name": "renounceOwnership",
      "outputs": [],
      "stateMutability": "nonpayable",
      "type": "function"
    },
    {
      "inputs": [
        {
          "internalType": "bytes32",
          "name": "root",
          "type": "bytes32"
        }
      ],
      "name": "setMerkleRoot",
      "outputs": [],
      "stateMutability": "nonpayable",
      "type": "function"
    },
    {
      "inputs": [
        {
          "internalType": "uint256",
          "name": "releaseDate",
          "type": "uint256"
        }
      ],
      "name": "setReleaseDate",
      "outputs": [],
      "stateMutability": "nonpayable",
      "type": "function"
    },
    {
      "inputs": [
        {
          "internalType": "address",
          "name": "newOwner",
          "type": "address"
        }
      ],
      "name": "transferOwnership",
      "outputs": [],
      "stateMutability": "nonpayable",
      "type": "function"
    },
    {
      "inputs": [
        {
          "internalType": "uint256",
          "name": "amount",
          "type": "uint256"
        },
        {
          "internalType": "bytes32[]",
          "name": "_merkleProof",
          "type": "bytes32[]"
        }
      ],
      "name": "withdraw",
      "outputs": [],
      "stateMutability": "nonpayable",
      "type": "function"
    }
  ],
  "bytecode": "0x608060405260006002553480156200001657600080fd5b50604051620017da380380620017da83398181016040528101906200003c9190620001e4565b60016000819055506200006462000058620000ac60201b60201c565b620000b460201b60201c565b80600360006101000a81548173ffffffffffffffffffffffffffffffffffffffff021916908373ffffffffffffffffffffffffffffffffffffffff1602179055505062000216565b600033905090565b6000600160009054906101000a900473ffffffffffffffffffffffffffffffffffffffff16905081600160006101000a81548173ffffffffffffffffffffffffffffffffffffffff021916908373ffffffffffffffffffffffffffffffffffffffff1602179055508173ffffffffffffffffffffffffffffffffffffffff168173ffffffffffffffffffffffffffffffffffffffff167f8be0079c531659141344cd1fd0a4f28419497f9722a3daafe3b4186f6b6457e060405160405180910390a35050565b600080fd5b600073ffffffffffffffffffffffffffffffffffffffff82169050919050565b6000620001ac826200017f565b9050919050565b620001be816200019f565b8114620001ca57600080fd5b50565b600081519050620001de81620001b3565b92915050565b600060208284031215620001fd57620001fc6200017a565b5b60006200020d84828501620001cd565b91505092915050565b6115b480620002266000396000f3fe608060405234801561001057600080fd5b506004361061009e5760003560e01c80638cf49cad116100665780638cf49cad1461011f5780638da5cb5b1461013d578063cb4d65031461015b578063f1e9f1e51461018b578063f2fde38b146101a95761009e565b80631352faec146100a35780632eb4a7ab146100bf57806336317972146100dd578063715018a6146100f95780637cb6475914610103575b600080fd5b6100bd60048036038101906100b89190610bfa565b6101c5565b005b6100c761024b565b6040516100d49190610c40565b60405180910390f35b6100f760048036038101906100f29190610cc0565b610251565b005b6101016107d6565b005b61011d60048036038101906101189190610d4c565b61085e565b005b6101276108e4565b6040516101349190610d88565b60405180910390f35b6101456108ea565b6040516101529190610de4565b60405180910390f35b61017560048036038101906101709190610e2b565b610914565b6040516101829190610d88565b60405180910390f35b61019361092c565b6040516101a09190610eb7565b60405180910390f35b6101c360048036038101906101be9190610e2b565b610952565b005b6101cd610a49565b73ffffffffffffffffffffffffffffffffffffffff166101eb6108ea565b73ffffffffffffffffffffffffffffffffffffffff1614610241576040517f08c379a000000000000000000000000000000000000000000000000000000000815260040161023890610f2f565b60405180910390fd5b8060048190555050565b60025481565b600260005403610296576040517f08c379a000000000000000000000000000000000000000000000000000000000815260040161028d90610f9b565b60405180910390fd5b600260008190555082600360009054906101000a900473ffffffffffffffffffffffffffffffffffffffff1673ffffffffffffffffffffffffffffffffffffffff166370a08231306040518263ffffffff1660e01b81526004016102fa9190610de4565b602060405180830381865afa158015610317573d6000803e3d6000fd5b505050506040513d601f19601f8201168201806040525081019061033b9190610fd0565b101561037c576040517f08c379a000000000000000000000000000000000000000000000000000000000815260040161037390611049565b60405180910390fd5b6000600254036103c1576040517f08c379a00000000000000000000000000000000000000000000000000000000081526004016103b8906110b5565b60405180910390fd5b60006103cb610a49565b846040516020016103dd92919061113e565b604051602081830303815290604052805190602001209050610443838380806020026020016040519081016040528093929190818152602001838360200280828437600081840152601f19601f8201169050808301925050505050505060025483610a51565b610482576040517f08c379a0000000000000000000000000000000000000000000000000000000008152600401610479906111b6565b60405180910390fd5b836005600061048f610a49565b73ffffffffffffffffffffffffffffffffffffffff1673ffffffffffffffffffffffffffffffffffffffff168152602001908152602001600020541061050a576040517f08c379a000000000000000000000000000000000000000000000000000000000815260040161050190611222565b60405180910390fd5b60006004541415801561051e575042600454105b61055d576040517f08c379a00000000000000000000000000000000000000000000000000000000081526004016105549061128e565b60405180910390fd5b60006004544261056d91906112dd565b9050600062278d00826105809190611340565b90506000601282111561059257601291505b60005b828110156106165760008114806105ac5750600181145b156105dc57600a6064896105c09190611340565b6105ca9190611371565b826105d591906113b3565b9150610603565b60056064896105eb9190611340565b6105f59190611371565b8261060091906113b3565b91505b808061060e906113e7565b915050610595565b5060008111156107c5576005600061062c610a49565b73ffffffffffffffffffffffffffffffffffffffff1673ffffffffffffffffffffffffffffffffffffffff168152602001908152602001600020548161067291906112dd565b90508060056000610681610a49565b73ffffffffffffffffffffffffffffffffffffffff1673ffffffffffffffffffffffffffffffffffffffff16815260200190815260200160002060008282546106ca91906113b3565b92505081905550600360009054906101000a900473ffffffffffffffffffffffffffffffffffffffff1673ffffffffffffffffffffffffffffffffffffffff1663a9059cbb610717610a49565b836040518363ffffffff1660e01b815260040161073592919061142f565b6020604051808303816000875af1158015610754573d6000803e3d6000fd5b505050506040513d601f19601f820116820180604052508101906107789190611490565b5080610782610a49565b73ffffffffffffffffffffffffffffffffffffffff167f6553897c25961cd3a105492c25576d0552123ee868aca283e90f3b4224d7d17760405160405180910390a35b505050506001600081905550505050565b6107de610a49565b73ffffffffffffffffffffffffffffffffffffffff166107fc6108ea565b73ffffffffffffffffffffffffffffffffffffffff1614610852576040517f08c379a000000000000000000000000000000000000000000000000000000000815260040161084990610f2f565b60405180910390fd5b61085c6000610a68565b565b610866610a49565b73ffffffffffffffffffffffffffffffffffffffff166108846108ea565b73ffffffffffffffffffffffffffffffffffffffff16146108da576040517f08c379a00000000000000000000000000000000000000000000000000000000081526004016108d190610f2f565b60405180910390fd5b8060028190555050565b60045481565b6000600160009054906101000a900473ffffffffffffffffffffffffffffffffffffffff16905090565b60056020528060005260406000206000915090505481565b600360009054906101000a900473ffffffffffffffffffffffffffffffffffffffff1681565b61095a610a49565b73ffffffffffffffffffffffffffffffffffffffff166109786108ea565b73ffffffffffffffffffffffffffffffffffffffff16146109ce576040517f08c379a00000000000000000000000000000000000000000000000000000000081526004016109c590610f2f565b60405180910390fd5b600073ffffffffffffffffffffffffffffffffffffffff168173ffffffffffffffffffffffffffffffffffffffff1603610a3d576040517f08c379a0000000000000000000000000000000000000000000000000000000008152600401610a349061152f565b60405180910390fd5b610a4681610a68565b50565b600033905090565b600082610a5e8584610b2e565b1490509392505050565b6000600160009054906101000a900473ffffffffffffffffffffffffffffffffffffffff16905081600160006101000a81548173ffffffffffffffffffffffffffffffffffffffff021916908373ffffffffffffffffffffffffffffffffffffffff1602179055508173ffffffffffffffffffffffffffffffffffffffff168173ffffffffffffffffffffffffffffffffffffffff167f8be0079c531659141344cd1fd0a4f28419497f9722a3daafe3b4186f6b6457e060405160405180910390a35050565b60008082905060005b8451811015610b98576000858281518110610b5557610b5461154f565b5b60200260200101519050808311610b7757610b708382610ba3565b9250610b84565b610b818184610ba3565b92505b508080610b90906113e7565b915050610b37565b508091505092915050565b600082600052816020526040600020905092915050565b600080fd5b600080fd5b6000819050919050565b610bd781610bc4565b8114610be257600080fd5b50565b600081359050610bf481610bce565b92915050565b600060208284031215610c1057610c0f610bba565b5b6000610c1e84828501610be5565b91505092915050565b6000819050919050565b610c3a81610c27565b82525050565b6000602082019050610c556000830184610c31565b92915050565b600080fd5b600080fd5b600080fd5b60008083601f840112610c8057610c7f610c5b565b5b8235905067ffffffffffffffff811115610c9d57610c9c610c60565b5b602083019150836020820283011115610cb957610cb8610c65565b5b9250929050565b600080600060408486031215610cd957610cd8610bba565b5b6000610ce786828701610be5565b935050602084013567ffffffffffffffff811115610d0857610d07610bbf565b5b610d1486828701610c6a565b92509250509250925092565b610d2981610c27565b8114610d3457600080fd5b50565b600081359050610d4681610d20565b92915050565b600060208284031215610d6257610d61610bba565b5b6000610d7084828501610d37565b91505092915050565b610d8281610bc4565b82525050565b6000602082019050610d9d6000830184610d79565b92915050565b600073ffffffffffffffffffffffffffffffffffffffff82169050919050565b6000610dce82610da3565b9050919050565b610dde81610dc3565b82525050565b6000602082019050610df96000830184610dd5565b92915050565b610e0881610dc3565b8114610e1357600080fd5b50565b600081359050610e2581610dff565b92915050565b600060208284031215610e4157610e40610bba565b5b6000610e4f84828501610e16565b91505092915050565b6000819050919050565b6000610e7d610e78610e7384610da3565b610e58565b610da3565b9050919050565b6000610e8f82610e62565b9050919050565b6000610ea182610e84565b9050919050565b610eb181610e96565b82525050565b6000602082019050610ecc6000830184610ea8565b92915050565b600082825260208201905092915050565b7f4f776e61626c653a2063616c6c6572206973206e6f7420746865206f776e6572600082015250565b6000610f19602083610ed2565b9150610f2482610ee3565b602082019050919050565b60006020820190508181036000830152610f4881610f0c565b9050919050565b7f5265656e7472616e637947756172643a207265656e7472616e742063616c6c00600082015250565b6000610f85601f83610ed2565b9150610f9082610f4f565b602082019050919050565b60006020820190508181036000830152610fb481610f78565b9050919050565b600081519050610fca81610bce565b92915050565b600060208284031215610fe657610fe5610bba565b5b6000610ff484828501610fbb565b91505092915050565b7f4e6f7420656e6f7567682066756e6473206c6566740000000000000000000000600082015250565b6000611033601583610ed2565b915061103e82610ffd565b602082019050919050565b6000602082019050818103600083015261106281611026565b9050919050565b7f6d65726b6c6520726f6f74206e6f742073657400000000000000000000000000600082015250565b600061109f601383610ed2565b91506110aa82611069565b602082019050919050565b600060208201905081810360008301526110ce81611092565b9050919050565b60008160601b9050919050565b60006110ed826110d5565b9050919050565b60006110ff826110e2565b9050919050565b61111761111282610dc3565b6110f4565b82525050565b6000819050919050565b61113861113382610bc4565b61111d565b82525050565b600061114a8285611106565b60148201915061115a8284611127565b6020820191508190509392505050565b7f496e636f72726563742070726f6f660000000000000000000000000000000000600082015250565b60006111a0600f83610ed2565b91506111ab8261116a565b602082019050919050565b600060208201905081810360008301526111cf81611193565b9050919050565b7f546f74616c20616d6f756e7420616c726561647920636c61696d656400000000600082015250565b600061120c601c83610ed2565b9150611217826111d6565b602082019050919050565b6000602082019050818103600083015261123b816111ff565b9050919050565b7f52656c6561736520686173206e6f742073746172746564207965742100000000600082015250565b6000611278601c83610ed2565b915061128382611242565b602082019050919050565b600060208201905081810360008301526112a78161126b565b9050919050565b7f4e487b7100000000000000000000000000000000000000000000000000000000600052601160045260246000fd5b60006112e882610bc4565b91506112f383610bc4565b925082820390508181111561130b5761130a6112ae565b5b92915050565b7f4e487b7100000000000000000000000000000000000000000000000000000000600052601260045260246000fd5b600061134b82610bc4565b915061135683610bc4565b92508261136657611365611311565b5b828204905092915050565b600061137c82610bc4565b915061138783610bc4565b925082820261139581610bc4565b915082820484148315176113ac576113ab6112ae565b5b5092915050565b60006113be82610bc4565b91506113c983610bc4565b92508282019050808211156113e1576113e06112ae565b5b92915050565b60006113f282610bc4565b91507fffffffffffffffffffffffffffffffffffffffffffffffffffffffffffffffff8203611424576114236112ae565b5b600182019050919050565b60006040820190506114446000830185610dd5565b6114516020830184610d79565b9392505050565b60008115159050919050565b61146d81611458565b811461147857600080fd5b50565b60008151905061148a81611464565b92915050565b6000602082840312156114a6576114a5610bba565b5b60006114b48482850161147b565b91505092915050565b7f4f776e61626c653a206e6577206f776e657220697320746865207a65726f206160008201527f6464726573730000000000000000000000000000000000000000000000000000602082015250565b6000611519602683610ed2565b9150611524826114bd565b604082019050919050565b600060208201905081810360008301526115488161150c565b9050919050565b7f4e487b7100000000000000000000000000000000000000000000000000000000600052603260045260246000fdfea264697066735822122063749a933b54596e4c21cb51408c0192bf0b3db58d52c67dcb9305fb7b0be3d864736f6c63430008110033",
  "linkReferences": {},
  "deployedLinkReferences": {}
}