{
  "_format": "hh-sol-artifact-1",
  "contractName": "SecondChanceStakingTokenBank",
  "sourceName": "contracts/Staking/SecondChanceStakingTokenBank.sol",
  "abi": [
    {
      "inputs": [
        {
          "internalType": "uint256",
          "name": "endDate",
          "type": "uint256"
        },
        {
          "internalType": "uint256",
          "name": "windowStart",
          "type": "uint256"
        },
        {
          "internalType": "uint256",
          "name": "windowEnd",
          "type": "uint256"
        },
        {
          "internalType": "uint256",
          "name": "baseFee",
          "type": "uint256"
        },
        {
          "internalType": "uint256",
          "name": "penaltyFee",
          "type": "uint256"
        }
      ],
      "stateMutability": "nonpayable",
      "type": "constructor"
    },
    {
      "anonymous": false,
      "inputs": [
        {
          "indexed": true,
          "internalType": "address",
          "name": "previousOwner",
          "type": "address"
        },
        {
          "indexed": true,
          "internalType": "address",
          "name": "newOwner",
          "type": "address"
        }
      ],
      "name": "OwnershipTransferred",
      "type": "event"
    },
    {
      "anonymous": false,
      "inputs": [
        {
          "indexed": true,
          "internalType": "uint256",
          "name": "_id",
          "type": "uint256"
        },
        {
          "indexed": true,
          "internalType": "uint256",
          "name": "_timestamp",
          "type": "uint256"
        },
        {
          "indexed": false,
          "internalType": "uint256",
          "name": "_windowStartDate",
          "type": "uint256"
        },
        {
          "indexed": false,
          "internalType": "uint256",
          "name": "_windowEndDate",
          "type": "uint256"
        },
        {
          "indexed": false,
          "internalType": "uint256",
          "name": "_poolEndDate",
          "type": "uint256"
        },
        {
          "indexed": false,
          "internalType": "address",
          "name": "_staker",
          "type": "address"
        },
        {
          "indexed": false,
          "internalType": "address",
          "name": "_token",
          "type": "address"
        },
        {
          "indexed": false,
          "internalType": "uint256",
          "name": "_amount",
          "type": "uint256"
        },
        {
          "indexed": false,
          "internalType": "uint256",
          "name": "_decimals",
          "type": "uint256"
        }
      ],
      "name": "Staked",
      "type": "event"
    },
    {
      "anonymous": false,
      "inputs": [
        {
          "indexed": true,
          "internalType": "uint256",
          "name": "_id",
          "type": "uint256"
        },
        {
          "indexed": true,
          "internalType": "uint256",
          "name": "_timestamp",
          "type": "uint256"
        }
      ],
      "name": "UnStaked",
      "type": "event"
    },
    {
      "inputs": [],
      "name": "BaseFee",
      "outputs": [
        {
          "internalType": "uint256",
          "name": "",
          "type": "uint256"
        }
      ],
      "stateMutability": "view",
      "type": "function"
    },
    {
      "inputs": [],
      "name": "LastId",
      "outputs": [
        {
          "internalType": "uint256",
          "name": "",
          "type": "uint256"
        }
      ],
      "stateMutability": "view",
      "type": "function"
    },
    {
      "inputs": [],
      "name": "PenaltyFee",
      "outputs": [
        {
          "internalType": "uint256",
          "name": "",
          "type": "uint256"
        }
      ],
      "stateMutability": "view",
      "type": "function"
    },
    {
      "inputs": [],
      "name": "PoolEndDate",
      "outputs": [
        {
          "internalType": "uint256",
          "name": "",
          "type": "uint256"
        }
      ],
      "stateMutability": "view",
      "type": "function"
    },
    {
      "inputs": [
        {
          "internalType": "uint256",
          "name": "",
          "type": "uint256"
        }
      ],
      "name": "StakeEntries",
      "outputs": [
        {
          "internalType": "address",
          "name": "Staker",
          "type": "address"
        },
        {
          "internalType": "address",
          "name": "TokenAddress",
          "type": "address"
        },
        {
          "internalType": "uint256",
          "name": "Amount",
          "type": "uint256"
        },
        {
          "internalType": "enum State",
          "name": "State",
          "type": "uint8"
        },
        {
          "internalType": "uint256",
          "name": "EntryTime",
          "type": "uint256"
        },
        {
          "internalType": "uint256",
          "name": "PeriodFinish",
          "type": "uint256"
        }
      ],
      "stateMutability": "view",
      "type": "function"
    },
    {
      "inputs": [
        {
          "internalType": "address",
          "name": "",
          "type": "address"
        },
        {
          "internalType": "uint256",
          "name": "",
          "type": "uint256"
        }
      ],
      "name": "StakeEntryIds",
      "outputs": [
        {
          "internalType": "uint256",
          "name": "",
          "type": "uint256"
        }
      ],
      "stateMutability": "view",
      "type": "function"
    },
    {
      "inputs": [],
      "name": "WindowEnd",
      "outputs": [
        {
          "internalType": "uint256",
          "name": "",
          "type": "uint256"
        }
      ],
      "stateMutability": "view",
      "type": "function"
    },
    {
      "inputs": [],
      "name": "WindowStart",
      "outputs": [
        {
          "internalType": "uint256",
          "name": "",
          "type": "uint256"
        }
      ],
      "stateMutability": "view",
      "type": "function"
    },
    {
      "inputs": [],
      "name": "owner",
      "outputs": [
        {
          "internalType": "address",
          "name": "",
          "type": "address"
        }
      ],
      "stateMutability": "view",
      "type": "function"
    },
    {
      "inputs": [],
      "name": "renounceOwnership",
      "outputs": [],
      "stateMutability": "nonpayable",
      "type": "function"
    },
    {
      "inputs": [
        {
          "internalType": "uint256",
          "name": "baseFee",
          "type": "uint256"
        }
      ],
      "name": "setBaseFee",
      "outputs": [],
      "stateMutability": "nonpayable",
      "type": "function"
    },
    {
      "inputs": [
        {
          "internalType": "uint256",
          "name": "penaltyFee",
          "type": "uint256"
        }
      ],
      "name": "setPenaltyFee",
      "outputs": [],
      "stateMutability": "nonpayable",
      "type": "function"
    },
    {
      "inputs": [
        {
          "internalType": "uint256",
          "name": "endDate",
          "type": "uint256"
        }
      ],
      "name": "setPoolEndDate",
      "outputs": [],
      "stateMutability": "nonpayable",
      "type": "function"
    },
    {
      "inputs": [
        {
          "internalType": "uint256",
          "name": "endDate",
          "type": "uint256"
        }
      ],
      "name": "setWindowEnd",
      "outputs": [],
      "stateMutability": "nonpayable",
      "type": "function"
    },
    {
      "inputs": [
        {
          "internalType": "uint256",
          "name": "startDate",
          "type": "uint256"
        }
      ],
      "name": "setWindowStart",
      "outputs": [],
      "stateMutability": "nonpayable",
      "type": "function"
    },
    {
      "inputs": [
        {
          "internalType": "address",
          "name": "stakingTokenAddress",
          "type": "address"
        }
      ],
      "name": "stake",
      "outputs": [],
      "stateMutability": "nonpayable",
      "type": "function"
    },
    {
      "inputs": [
        {
          "internalType": "address",
          "name": "_address",
          "type": "address"
        }
      ],
      "name": "stakeEntryIdsFullMapping",
      "outputs": [
        {
          "internalType": "uint256[]",
          "name": "",
          "type": "uint256[]"
        }
      ],
      "stateMutability": "view",
      "type": "function"
    },
    {
      "inputs": [
        {
          "internalType": "address",
          "name": "newOwner",
          "type": "address"
        }
      ],
      "name": "transferOwnership",
      "outputs": [],
      "stateMutability": "nonpayable",
      "type": "function"
    },
    {
      "inputs": [
        {
          "internalType": "uint256",
          "name": "id",
          "type": "uint256"
        }
      ],
      "name": "unStake",
      "outputs": [],
      "stateMutability": "nonpayable",
      "type": "function"
    }
  ],
  "bytecode": "0x60806040523480156200001157600080fd5b506040516200215c3803806200215c83398181016040528101906200003791906200019b565b60016000819055506200005f620000536200008d60201b60201c565b6200009560201b60201c565b8460058190555081600681905550806007819055508360088190555082600981905550505050505062000223565b600033905090565b6000600160009054906101000a900473ffffffffffffffffffffffffffffffffffffffff16905081600160006101000a81548173ffffffffffffffffffffffffffffffffffffffff021916908373ffffffffffffffffffffffffffffffffffffffff1602179055508173ffffffffffffffffffffffffffffffffffffffff168173ffffffffffffffffffffffffffffffffffffffff167f8be0079c531659141344cd1fd0a4f28419497f9722a3daafe3b4186f6b6457e060405160405180910390a35050565b600080fd5b6000819050919050565b620001758162000160565b81146200018157600080fd5b50565b60008151905062000195816200016a565b92915050565b600080600080600060a08688031215620001ba57620001b96200015b565b5b6000620001ca8882890162000184565b9550506020620001dd8882890162000184565b9450506040620001f08882890162000184565b9350506060620002038882890162000184565b9250506080620002168882890162000184565b9150509295509295909350565b611f2980620002336000396000f3fe608060405234801561001057600080fd5b50600436106101215760003560e01c80636f9e15cc116100ad578063a258ca5c11610071578063a258ca5c146102bc578063de8ad047146102f1578063ee85b50c1461030d578063f05f2e411461033d578063f2fde38b1461035b57610121565b80636f9e15cc1461023c578063715018a61461025a578063735f9256146102645780638da5cb5b14610282578063995dc0c5146102a057610121565b806346860698116100f4578063468606981461019a57806347f758d6146101b657806358f3c78a146101d25780635d3eea911461020257806364e367251461021e57610121565b806310c4f434146101265780631544e6521461014257806326476204146101605780632b31f2a11461017c575b600080fd5b610140600480360381019061013b91906114b9565b610377565b005b61014a6103fd565b60405161015791906114f5565b60405180910390f35b61017a6004803603810190610175919061156e565b610403565b005b610184610a5f565b60405161019191906114f5565b60405180910390f35b6101b460048036038101906101af91906114b9565b610a65565b005b6101d060048036038101906101cb91906114b9565b610aeb565b005b6101ec60048036038101906101e7919061156e565b610b71565b6040516101f99190611659565b60405180910390f35b61021c600480360381019061021791906114b9565b610c08565b005b610226611029565b60405161023391906114f5565b60405180910390f35b61024461102f565b60405161025191906114f5565b60405180910390f35b610262611035565b005b61026c6110bd565b60405161027991906114f5565b60405180910390f35b61028a6110c3565b604051610297919061168a565b60405180910390f35b6102ba60048036038101906102b591906114b9565b6110ed565b005b6102d660048036038101906102d191906114b9565b611173565b6040516102e89695949392919061171c565b60405180910390f35b61030b600480360381019061030691906114b9565b6111fc565b005b6103276004803603810190610322919061177d565b611282565b60405161033491906114f5565b60405180910390f35b6103456112b3565b60405161035291906114f5565b60405180910390f35b6103756004803603810190610370919061156e565b6112b9565b005b61037f6113b0565b73ffffffffffffffffffffffffffffffffffffffff1661039d6110c3565b73ffffffffffffffffffffffffffffffffffffffff16146103f3576040517f08c379a00000000000000000000000000000000000000000000000000000000081526004016103ea9061181a565b60405180910390fd5b8060078190555050565b60065481565b600260005403610448576040517f08c379a000000000000000000000000000000000000000000000000000000000815260040161043f90611886565b60405180910390fd5b600260008190555060008173ffffffffffffffffffffffffffffffffffffffff166370a082316104766113b0565b6040518263ffffffff1660e01b8152600401610492919061168a565b602060405180830381865afa1580156104af573d6000803e3d6000fd5b505050506040513d601f19601f820116820180604052508101906104d391906118bb565b9050808273ffffffffffffffffffffffffffffffffffffffff1663dd62ed3e6104fa6113b0565b306040518363ffffffff1660e01b81526004016105189291906118e8565b602060405180830381865afa158015610535573d6000803e3d6000fd5b505050506040513d601f19601f8201168201806040525081019061055991906118bb565b101561059a576040517f08c379a00000000000000000000000000000000000000000000000000000000081526004016105919061195d565b60405180910390fd5b60085442116105de576040517f08c379a00000000000000000000000000000000000000000000000000000000081526004016105d5906119c9565b60405180910390fd5b6009544210610622576040517f08c379a000000000000000000000000000000000000000000000000000000000815260040161061990611a35565b60405180910390fd5b6001600460008282546106359190611a84565b925050819055506106446113b0565b60026000600454815260200190815260200160002060000160006101000a81548173ffffffffffffffffffffffffffffffffffffffff021916908373ffffffffffffffffffffffffffffffffffffffff1602179055508160026000600454815260200190815260200160002060010160006101000a81548173ffffffffffffffffffffffffffffffffffffffff021916908373ffffffffffffffffffffffffffffffffffffffff160217905550600060026000600454815260200190815260200160002060030160006101000a81548160ff0219169083600181111561072d5761072c6116a5565b5b02179055504260026000600454815260200190815260200160002060040181905550600554600260006004548152602001908152602001600020600501819055506003600061077a6113b0565b73ffffffffffffffffffffffffffffffffffffffff1673ffffffffffffffffffffffffffffffffffffffff168152602001908152602001600020600454908060018154018082558091505060019003906000526020600020016000909190919091505560008273ffffffffffffffffffffffffffffffffffffffff166370a08231306040518263ffffffff1660e01b8152600401610818919061168a565b602060405180830381865afa158015610835573d6000803e3d6000fd5b505050506040513d601f19601f8201168201806040525081019061085991906118bb565b90508273ffffffffffffffffffffffffffffffffffffffff166323b872dd61087f6113b0565b30856040518463ffffffff1660e01b815260040161089f93929190611ab8565b6020604051808303816000875af11580156108be573d6000803e3d6000fd5b505050506040513d601f19601f820116820180604052508101906108e29190611b27565b5060008373ffffffffffffffffffffffffffffffffffffffff166370a08231306040518263ffffffff1660e01b815260040161091e919061168a565b602060405180830381865afa15801561093b573d6000803e3d6000fd5b505050506040513d601f19601f8201168201806040525081019061095f91906118bb565b90506000828261096f9190611b54565b90508060026000600454815260200190815260200160002060020181905550426004547f4dc8c65a76096a103dedd54acb7fd47ae3a5d006a4f437a441de171a60826b0f6008546009546005546109c46113b0565b8b888d73ffffffffffffffffffffffffffffffffffffffff1663313ce5676040518163ffffffff1660e01b8152600401602060405180830381865afa158015610a11573d6000803e3d6000fd5b505050506040513d601f19601f82011682018060405250810190610a359190611bc1565b604051610a489796959493929190611c29565b60405180910390a350505050600160008190555050565b60095481565b610a6d6113b0565b73ffffffffffffffffffffffffffffffffffffffff16610a8b6110c3565b73ffffffffffffffffffffffffffffffffffffffff1614610ae1576040517f08c379a0000000000000000000000000000000000000000000000000000000008152600401610ad89061181a565b60405180910390fd5b8060068190555050565b610af36113b0565b73ffffffffffffffffffffffffffffffffffffffff16610b116110c3565b73ffffffffffffffffffffffffffffffffffffffff1614610b67576040517f08c379a0000000000000000000000000000000000000000000000000000000008152600401610b5e9061181a565b60405180910390fd5b8060088190555050565b6060600360008373ffffffffffffffffffffffffffffffffffffffff1673ffffffffffffffffffffffffffffffffffffffff168152602001908152602001600020805480602002602001604051908101604052809291908181526020018280548015610bfc57602002820191906000526020600020905b815481526020019060010190808311610be8575b50505050509050919050565b600260005403610c4d576040517f08c379a0000000000000000000000000000000000000000000000000000000008152600401610c4490611886565b60405180910390fd5b6002600081905550610c5d6113b0565b73ffffffffffffffffffffffffffffffffffffffff166002600083815260200190815260200160002060000160009054906101000a900473ffffffffffffffffffffffffffffffffffffffff1673ffffffffffffffffffffffffffffffffffffffff1614610d00576040517f08c379a0000000000000000000000000000000000000000000000000000000008152600401610cf790611d0a565b60405180910390fd5b60006001811115610d1457610d136116a5565b5b6002600083815260200190815260200160002060030160009054906101000a900460ff166001811115610d4a57610d496116a5565b5b14610d8a576040517f08c379a0000000000000000000000000000000000000000000000000000000008152600401610d8190611d76565b60405180910390fd5b600060646006546002600085815260200190815260200160002060020154610db29190611d96565b610dbc9190611e07565b905060026000600454815260200190815260200160002060050154421015610e115760646007546002600085815260200190815260200160002060020154610e049190611d96565b610e0e9190611e07565b90505b6000816002600085815260200190815260200160002060020154610e359190611b54565b905060016002600085815260200190815260200160002060030160006101000a81548160ff02191690836001811115610e7157610e706116a5565b5b02179055506002600084815260200190815260200160002060010160009054906101000a900473ffffffffffffffffffffffffffffffffffffffff1673ffffffffffffffffffffffffffffffffffffffff1663a9059cbb610ed06113b0565b836040518363ffffffff1660e01b8152600401610eee929190611e38565b6020604051808303816000875af1158015610f0d573d6000803e3d6000fd5b505050506040513d601f19601f82011682018060405250810190610f319190611b27565b506002600084815260200190815260200160002060010160009054906101000a900473ffffffffffffffffffffffffffffffffffffffff1673ffffffffffffffffffffffffffffffffffffffff1663a9059cbb610f8c6110c3565b846040518363ffffffff1660e01b8152600401610faa929190611e38565b6020604051808303816000875af1158015610fc9573d6000803e3d6000fd5b505050506040513d601f19601f82011682018060405250810190610fed9190611b27565b5042837f69f6d6e6926b6914c628cca5ab19879a4099facaba2b44626e07d8e38ebd189b60405160405180910390a35050600160008190555050565b60085481565b60045481565b61103d6113b0565b73ffffffffffffffffffffffffffffffffffffffff1661105b6110c3565b73ffffffffffffffffffffffffffffffffffffffff16146110b1576040517f08c379a00000000000000000000000000000000000000000000000000000000081526004016110a89061181a565b60405180910390fd5b6110bb60006113b8565b565b60075481565b6000600160009054906101000a900473ffffffffffffffffffffffffffffffffffffffff16905090565b6110f56113b0565b73ffffffffffffffffffffffffffffffffffffffff166111136110c3565b73ffffffffffffffffffffffffffffffffffffffff1614611169576040517f08c379a00000000000000000000000000000000000000000000000000000000081526004016111609061181a565b60405180910390fd5b8060058190555050565b60026020528060005260406000206000915090508060000160009054906101000a900473ffffffffffffffffffffffffffffffffffffffff16908060010160009054906101000a900473ffffffffffffffffffffffffffffffffffffffff16908060020154908060030160009054906101000a900460ff16908060040154908060050154905086565b6112046113b0565b73ffffffffffffffffffffffffffffffffffffffff166112226110c3565b73ffffffffffffffffffffffffffffffffffffffff1614611278576040517f08c379a000000000000000000000000000000000000000000000000000000000815260040161126f9061181a565b60405180910390fd5b8060098190555050565b6003602052816000526040600020818154811061129e57600080fd5b90600052602060002001600091509150505481565b60055481565b6112c16113b0565b73ffffffffffffffffffffffffffffffffffffffff166112df6110c3565b73ffffffffffffffffffffffffffffffffffffffff1614611335576040517f08c379a000000000000000000000000000000000000000000000000000000000815260040161132c9061181a565b60405180910390fd5b600073ffffffffffffffffffffffffffffffffffffffff168173ffffffffffffffffffffffffffffffffffffffff16036113a4576040517f08c379a000000000000000000000000000000000000000000000000000000000815260040161139b90611ed3565b60405180910390fd5b6113ad816113b8565b50565b600033905090565b6000600160009054906101000a900473ffffffffffffffffffffffffffffffffffffffff16905081600160006101000a81548173ffffffffffffffffffffffffffffffffffffffff021916908373ffffffffffffffffffffffffffffffffffffffff1602179055508173ffffffffffffffffffffffffffffffffffffffff168173ffffffffffffffffffffffffffffffffffffffff167f8be0079c531659141344cd1fd0a4f28419497f9722a3daafe3b4186f6b6457e060405160405180910390a35050565b600080fd5b6000819050919050565b61149681611483565b81146114a157600080fd5b50565b6000813590506114b38161148d565b92915050565b6000602082840312156114cf576114ce61147e565b5b60006114dd848285016114a4565b91505092915050565b6114ef81611483565b82525050565b600060208201905061150a60008301846114e6565b92915050565b600073ffffffffffffffffffffffffffffffffffffffff82169050919050565b600061153b82611510565b9050919050565b61154b81611530565b811461155657600080fd5b50565b60008135905061156881611542565b92915050565b6000602082840312156115845761158361147e565b5b600061159284828501611559565b91505092915050565b600081519050919050565b600082825260208201905092915050565b6000819050602082019050919050565b6115d081611483565b82525050565b60006115e283836115c7565b60208301905092915050565b6000602082019050919050565b60006116068261159b565b61161081856115a6565b935061161b836115b7565b8060005b8381101561164c57815161163388826115d6565b975061163e836115ee565b92505060018101905061161f565b5085935050505092915050565b6000602082019050818103600083015261167381846115fb565b905092915050565b61168481611530565b82525050565b600060208201905061169f600083018461167b565b92915050565b7f4e487b7100000000000000000000000000000000000000000000000000000000600052602160045260246000fd5b600281106116e5576116e46116a5565b5b50565b60008190506116f6826116d4565b919050565b6000611706826116e8565b9050919050565b611716816116fb565b82525050565b600060c082019050611731600083018961167b565b61173e602083018861167b565b61174b60408301876114e6565b611758606083018661170d565b61176560808301856114e6565b61177260a08301846114e6565b979650505050505050565b600080604083850312156117945761179361147e565b5b60006117a285828601611559565b92505060206117b3858286016114a4565b9150509250929050565b600082825260208201905092915050565b7f4f776e61626c653a2063616c6c6572206973206e6f7420746865206f776e6572600082015250565b60006118046020836117bd565b915061180f826117ce565b602082019050919050565b60006020820190508181036000830152611833816117f7565b9050919050565b7f5265656e7472616e637947756172643a207265656e7472616e742063616c6c00600082015250565b6000611870601f836117bd565b915061187b8261183a565b602082019050919050565b6000602082019050818103600083015261189f81611863565b9050919050565b6000815190506118b58161148d565b92915050565b6000602082840312156118d1576118d061147e565b5b60006118df848285016118a6565b91505092915050565b60006040820190506118fd600083018561167b565b61190a602083018461167b565b9392505050565b7f416c6c6f77616e6365206e6f7420736574000000000000000000000000000000600082015250565b60006119476011836117bd565b915061195282611911565b602082019050919050565b600060208201905081810360008301526119768161193a565b9050919050565b7f43616e6e6f74207374616b65206265666f726520737461727400000000000000600082015250565b60006119b36019836117bd565b91506119be8261197d565b602082019050919050565b600060208201905081810360008301526119e2816119a6565b9050919050565b7f43616e6e6f74207374616b6520616674657220656e6400000000000000000000600082015250565b6000611a1f6016836117bd565b9150611a2a826119e9565b602082019050919050565b60006020820190508181036000830152611a4e81611a12565b9050919050565b7f4e487b7100000000000000000000000000000000000000000000000000000000600052601160045260246000fd5b6000611a8f82611483565b9150611a9a83611483565b9250828201905080821115611ab257611ab1611a55565b5b92915050565b6000606082019050611acd600083018661167b565b611ada602083018561167b565b611ae760408301846114e6565b949350505050565b60008115159050919050565b611b0481611aef565b8114611b0f57600080fd5b50565b600081519050611b2181611afb565b92915050565b600060208284031215611b3d57611b3c61147e565b5b6000611b4b84828501611b12565b91505092915050565b6000611b5f82611483565b9150611b6a83611483565b9250828203905081811115611b8257611b81611a55565b5b92915050565b600060ff82169050919050565b611b9e81611b88565b8114611ba957600080fd5b50565b600081519050611bbb81611b95565b92915050565b600060208284031215611bd757611bd661147e565b5b6000611be584828501611bac565b91505092915050565b6000819050919050565b6000611c13611c0e611c0984611b88565b611bee565b611483565b9050919050565b611c2381611bf8565b82525050565b600060e082019050611c3e600083018a6114e6565b611c4b60208301896114e6565b611c5860408301886114e6565b611c65606083018761167b565b611c72608083018661167b565b611c7f60a08301856114e6565b611c8c60c0830184611c1a565b98975050505050505050565b7f6e6f7420616c6c6f77656420746f20756e7374616b65207468697320656e747260008201527f7900000000000000000000000000000000000000000000000000000000000000602082015250565b6000611cf46021836117bd565b9150611cff82611c98565b604082019050919050565b60006020820190508181036000830152611d2381611ce7565b9050919050565b7f616c726561647920756e7374616b656400000000000000000000000000000000600082015250565b6000611d606010836117bd565b9150611d6b82611d2a565b602082019050919050565b60006020820190508181036000830152611d8f81611d53565b9050919050565b6000611da182611483565b9150611dac83611483565b9250828202611dba81611483565b91508282048414831517611dd157611dd0611a55565b5b5092915050565b7f4e487b7100000000000000000000000000000000000000000000000000000000600052601260045260246000fd5b6000611e1282611483565b9150611e1d83611483565b925082611e2d57611e2c611dd8565b5b828204905092915050565b6000604082019050611e4d600083018561167b565b611e5a60208301846114e6565b9392505050565b7f4f776e61626c653a206e6577206f776e657220697320746865207a65726f206160008201527f6464726573730000000000000000000000000000000000000000000000000000602082015250565b6000611ebd6026836117bd565b9150611ec882611e61565b604082019050919050565b60006020820190508181036000830152611eec81611eb0565b905091905056fea264697066735822122073fa08651c4240816ca40e1c967c83bea695f1b17b8dd80f5b4f16f04d60ecea64736f6c63430008110033",
  "linkReferences": {},
  "deployedLinkReferences": {}
}