{
  "abi": [
    {
      "inputs": [
        {
          "internalType": "address",
          "name": "token",
          "type": "address"
        }
      ],
      "stateMutability": "nonpayable",
      "type": "constructor"
    },
    {
      "anonymous": false,
      "inputs": [
        {
          "indexed": true,
          "internalType": "address",
          "name": "previousOwner",
          "type": "address"
        },
        {
          "indexed": true,
          "internalType": "address",
          "name": "newOwner",
          "type": "address"
        }
      ],
      "name": "OwnershipTransferred",
      "type": "event"
    },
    {
      "anonymous": false,
      "inputs": [
        {
          "indexed": true,
          "internalType": "address",
          "name": "reciever",
          "type": "address"
        },
        {
          "indexed": true,
          "internalType": "uint256",
          "name": "amount",
          "type": "uint256"
        }
      ],
      "name": "RewardWithdraw",
      "type": "event"
    },
    {
      "inputs": [],
      "name": "ReleaseDate",
      "outputs": [
        {
          "internalType": "uint256",
          "name": "",
          "type": "uint256"
        }
      ],
      "stateMutability": "view",
      "type": "function"
    },
    {
      "inputs": [
        {
          "internalType": "address",
          "name": "",
          "type": "address"
        }
      ],
      "name": "RewardAmountClaimed",
      "outputs": [
        {
          "internalType": "uint256",
          "name": "",
          "type": "uint256"
        }
      ],
      "stateMutability": "view",
      "type": "function"
    },
    {
      "inputs": [],
      "name": "RewardToken",
      "outputs": [
        {
          "internalType": "contract IERC20",
          "name": "",
          "type": "address"
        }
      ],
      "stateMutability": "view",
      "type": "function"
    },
    {
      "inputs": [],
      "name": "merkleRoot",
      "outputs": [
        {
          "internalType": "bytes32",
          "name": "",
          "type": "bytes32"
        }
      ],
      "stateMutability": "view",
      "type": "function"
    },
    {
      "inputs": [],
      "name": "owner",
      "outputs": [
        {
          "internalType": "address",
          "name": "",
          "type": "address"
        }
      ],
      "stateMutability": "view",
      "type": "function"
    },
    {
      "inputs": [],
      "name": "renounceOwnership",
      "outputs": [],
      "stateMutability": "nonpayable",
      "type": "function"
    },
    {
      "inputs": [
        {
          "internalType": "bytes32",
          "name": "root",
          "type": "bytes32"
        }
      ],
      "name": "setMerkleRoot",
      "outputs": [],
      "stateMutability": "nonpayable",
      "type": "function"
    },
    {
      "inputs": [
        {
          "internalType": "uint256",
          "name": "releaseDate",
          "type": "uint256"
        }
      ],
      "name": "setReleaseDate",
      "outputs": [],
      "stateMutability": "nonpayable",
      "type": "function"
    },
    {
      "inputs": [
        {
          "internalType": "address",
          "name": "newOwner",
          "type": "address"
        }
      ],
      "name": "transferOwnership",
      "outputs": [],
      "stateMutability": "nonpayable",
      "type": "function"
    },
    {
      "inputs": [
        {
          "internalType": "uint256",
          "name": "amount",
          "type": "uint256"
        },
        {
          "internalType": "bytes32[]",
          "name": "_merkleProof",
          "type": "bytes32[]"
        }
      ],
      "name": "withdraw",
      "outputs": [],
      "stateMutability": "nonpayable",
      "type": "function"
    }
  ],
  "bytecode": {
    "object": "0x6080604052600060025534801561001557600080fd5b50604051610b18380380610b18833981016040819052610034916100b9565b600160005561004233610067565b600380546001600160a01b0319166001600160a01b03929092169190911790556100e9565b600180546001600160a01b038381166001600160a01b0319831681179093556040519116919082907f8be0079c531659141344cd1fd0a4f28419497f9722a3daafe3b4186f6b6457e090600090a35050565b6000602082840312156100cb57600080fd5b81516001600160a01b03811681146100e257600080fd5b9392505050565b610a20806100f86000396000f3fe608060405234801561001057600080fd5b506004361061009e5760003560e01c80638cf49cad116100665780638cf49cad146101025780638da5cb5b1461010b578063cb4d650314610130578063f1e9f1e514610150578063f2fde38b1461016357600080fd5b80631352faec146100a35780632eb4a7ab146100b857806336317972146100d4578063715018a6146100e75780637cb64759146100ef575b600080fd5b6100b66100b136600461080e565b610176565b005b6100c160025481565b6040519081526020015b60405180910390f35b6100b66100e2366004610827565b6101ae565b6100b6610630565b6100b66100fd36600461080e565b610666565b6100c160045481565b6001546001600160a01b03165b6040516001600160a01b0390911681526020016100cb565b6100c161013e3660046108a6565b60056020526000908152604090205481565b600354610118906001600160a01b031681565b6100b66101713660046108a6565b610695565b6001546001600160a01b031633146101a95760405162461bcd60e51b81526004016101a0906108d6565b60405180910390fd5b600455565b6002600054036102005760405162461bcd60e51b815260206004820152601f60248201527f5265656e7472616e637947756172643a207265656e7472616e742063616c6c0060448201526064016101a0565b60026000556003546040516370a0823160e01b815230600482015284916001600160a01b0316906370a0823190602401602060405180830381865afa15801561024d573d6000803e3d6000fd5b505050506040513d601f19601f82011682018060405250810190610271919061090b565b10156102b75760405162461bcd60e51b8152602060048201526015602482015274139bdd08195b9bdd59da08199d5b991cc81b19599d605a1b60448201526064016101a0565b6002546000036102ff5760405162461bcd60e51b81526020600482015260136024820152721b595c9adb19481c9bdbdd081b9bdd081cd95d606a1b60448201526064016101a0565b6040516bffffffffffffffffffffffff193360601b16602082015260348101849052600090605401604051602081830303815290604052805190602001209050610380838380806020026020016040519081016040528093929190818152602001838360200280828437600092019190915250506002549150849050610730565b6103be5760405162461bcd60e51b815260206004820152600f60248201526e24b731b7b93932b1ba10383937b7b360891b60448201526064016101a0565b33600090815260056020526040902054841161041c5760405162461bcd60e51b815260206004820152601c60248201527f546f74616c20616d6f756e7420616c726561647920636c61696d65640000000060448201526064016101a0565b6004541580159061042e575042600454105b61047a5760405162461bcd60e51b815260206004820152601c60248201527f52656c6561736520686173206e6f74207374617274656420796574210000000060448201526064016101a0565b60006004544261048a919061093a565b9050600061049b62278d008361094d565b9050600060128211156104ad57601291505b60005b82811015610526578015806104c55750806001145b156104f1576104d560648961094d565b6104e090600a61096f565b6104ea9083610986565b9150610514565b6104fc60648961094d565b61050790600561096f565b6105119083610986565b91505b8061051e81610999565b9150506104b0565b5080156106225733600090815260056020526040902054610547908261093a565b3360009081526005602052604081208054929350839290919061056b908490610986565b90915550506003546001600160a01b031663a9059cbb336040516001600160e01b031960e084901b1681526001600160a01b039091166004820152602481018490526044016020604051808303816000875af11580156105cf573d6000803e3d6000fd5b505050506040513d601f19601f820116820180604052508101906105f391906109b2565b50604051819033907f6553897c25961cd3a105492c25576d0552123ee868aca283e90f3b4224d7d17790600090a35b505060016000555050505050565b6001546001600160a01b0316331461065a5760405162461bcd60e51b81526004016101a0906108d6565b6106646000610746565b565b6001546001600160a01b031633146106905760405162461bcd60e51b81526004016101a0906108d6565b600255565b6001546001600160a01b031633146106bf5760405162461bcd60e51b81526004016101a0906108d6565b6001600160a01b0381166107245760405162461bcd60e51b815260206004820152602660248201527f4f776e61626c653a206e6577206f776e657220697320746865207a65726f206160448201526564647265737360d01b60648201526084016101a0565b61072d81610746565b50565b60008261073d8584610798565b14949350505050565b600180546001600160a01b038381166001600160a01b0319831681179093556040519116919082907f8be0079c531659141344cd1fd0a4f28419497f9722a3daafe3b4186f6b6457e090600090a35050565b600081815b84518110156108045760008582815181106107ba576107ba6109d4565b602002602001015190508083116107e057600083815260208290526040902092506107f1565b600081815260208490526040902092505b50806107fc81610999565b91505061079d565b5090505b92915050565b60006020828403121561082057600080fd5b5035919050565b60008060006040848603121561083c57600080fd5b83359250602084013567ffffffffffffffff8082111561085b57600080fd5b818601915086601f83011261086f57600080fd5b81358181111561087e57600080fd5b8760208260051b850101111561089357600080fd5b6020830194508093505050509250925092565b6000602082840312156108b857600080fd5b81356001600160a01b03811681146108cf57600080fd5b9392505050565b6020808252818101527f4f776e61626c653a2063616c6c6572206973206e6f7420746865206f776e6572604082015260600190565b60006020828403121561091d57600080fd5b5051919050565b634e487b7160e01b600052601160045260246000fd5b8181038181111561080857610808610924565b60008261096a57634e487b7160e01b600052601260045260246000fd5b500490565b808202811582820484141761080857610808610924565b8082018082111561080857610808610924565b6000600182016109ab576109ab610924565b5060010190565b6000602082840312156109c457600080fd5b815180151581146108cf57600080fd5b634e487b7160e01b600052603260045260246000fdfea2646970667358221220ca239e8de6753b71ca71b502e0eb602ddc55afeed9d14b2bd2ee9833aa4620c264736f6c63430008110033",
    "linkReferences": {}
  },
  "methodIdentifiers": {
    "ReleaseDate()": "8cf49cad",
    "RewardAmountClaimed(address)": "cb4d6503",
    "RewardToken()": "f1e9f1e5",
    "merkleRoot()": "2eb4a7ab",
    "owner()": "8da5cb5b",
    "renounceOwnership()": "715018a6",
    "setMerkleRoot(bytes32)": "7cb64759",
    "setReleaseDate(uint256)": "1352faec",
    "transferOwnership(address)": "f2fde38b",
    "withdraw(uint256,bytes32[])": "36317972"
  },
  "id": 8
}