{
  "_format": "hh-sol-artifact-1",
  "contractName": "CryptoExchange",
  "sourceName": "contracts/CryptoExchange.sol",
  "abi": [
    {
      "inputs": [
        {
          "internalType": "address",
          "name": "feeRecipient",
          "type": "address"
        }
      ],
      "stateMutability": "nonpayable",
      "type": "constructor"
    },
    {
      "anonymous": false,
      "inputs": [
        {
          "indexed": true,
          "internalType": "address",
          "name": "owner",
          "type": "address"
        },
        {
          "indexed": true,
          "internalType": "address",
          "name": "spender",
          "type": "address"
        },
        {
          "indexed": false,
          "internalType": "uint256",
          "name": "value",
          "type": "uint256"
        }
      ],
      "name": "Approval",
      "type": "event"
    },
    {
      "anonymous": false,
      "inputs": [
        {
          "indexed": true,
          "internalType": "address",
          "name": "previousOwner",
          "type": "address"
        },
        {
          "indexed": true,
          "internalType": "address",
          "name": "newOwner",
          "type": "address"
        }
      ],
      "name": "OwnershipTransferred",
      "type": "event"
    },
    {
      "anonymous": false,
      "inputs": [
        {
          "indexed": true,
          "internalType": "address",
          "name": "from",
          "type": "address"
        },
        {
          "indexed": true,
          "internalType": "address",
          "name": "to",
          "type": "address"
        },
        {
          "indexed": false,
          "internalType": "uint256",
          "name": "value",
          "type": "uint256"
        }
      ],
      "name": "Transfer",
      "type": "event"
    },
    {
      "inputs": [
        {
          "internalType": "address",
          "name": "",
          "type": "address"
        }
      ],
      "name": "FeeExclusions",
      "outputs": [
        {
          "internalType": "bool",
          "name": "",
          "type": "bool"
        }
      ],
      "stateMutability": "view",
      "type": "function"
    },
    {
      "inputs": [],
      "name": "FeeFraction",
      "outputs": [
        {
          "internalType": "uint256",
          "name": "",
          "type": "uint256"
        }
      ],
      "stateMutability": "view",
      "type": "function"
    },
    {
      "inputs": [],
      "name": "FeeRecipient",
      "outputs": [
        {
          "internalType": "address",
          "name": "",
          "type": "address"
        }
      ],
      "stateMutability": "view",
      "type": "function"
    },
    {
      "inputs": [
        {
          "internalType": "address",
          "name": "toExclude",
          "type": "address"
        }
      ],
      "name": "addFeeExclusion",
      "outputs": [],
      "stateMutability": "nonpayable",
      "type": "function"
    },
    {
      "inputs": [
        {
          "internalType": "address",
          "name": "owner",
          "type": "address"
        },
        {
          "internalType": "address",
          "name": "spender",
          "type": "address"
        }
      ],
      "name": "allowance",
      "outputs": [
        {
          "internalType": "uint256",
          "name": "",
          "type": "uint256"
        }
      ],
      "stateMutability": "view",
      "type": "function"
    },
    {
      "inputs": [
        {
          "internalType": "address",
          "name": "spender",
          "type": "address"
        },
        {
          "internalType": "uint256",
          "name": "amount",
          "type": "uint256"
        }
      ],
      "name": "approve",
      "outputs": [
        {
          "internalType": "bool",
          "name": "",
          "type": "bool"
        }
      ],
      "stateMutability": "nonpayable",
      "type": "function"
    },
    {
      "inputs": [
        {
          "internalType": "address",
          "name": "account",
          "type": "address"
        }
      ],
      "name": "balanceOf",
      "outputs": [
        {
          "internalType": "uint256",
          "name": "",
          "type": "uint256"
        }
      ],
      "stateMutability": "view",
      "type": "function"
    },
    {
      "inputs": [
        {
          "internalType": "uint256",
          "name": "amount",
          "type": "uint256"
        }
      ],
      "name": "burn",
      "outputs": [],
      "stateMutability": "nonpayable",
      "type": "function"
    },
    {
      "inputs": [],
      "name": "decimals",
      "outputs": [
        {
          "internalType": "uint8",
          "name": "",
          "type": "uint8"
        }
      ],
      "stateMutability": "view",
      "type": "function"
    },
    {
      "inputs": [
        {
          "internalType": "address",
          "name": "spender",
          "type": "address"
        },
        {
          "internalType": "uint256",
          "name": "subtractedValue",
          "type": "uint256"
        }
      ],
      "name": "decreaseAllowance",
      "outputs": [
        {
          "internalType": "bool",
          "name": "",
          "type": "bool"
        }
      ],
      "stateMutability": "nonpayable",
      "type": "function"
    },
    {
      "inputs": [
        {
          "internalType": "address",
          "name": "spender",
          "type": "address"
        },
        {
          "internalType": "uint256",
          "name": "addedValue",
          "type": "uint256"
        }
      ],
      "name": "increaseAllowance",
      "outputs": [
        {
          "internalType": "bool",
          "name": "",
          "type": "bool"
        }
      ],
      "stateMutability": "nonpayable",
      "type": "function"
    },
    {
      "inputs": [],
      "name": "name",
      "outputs": [
        {
          "internalType": "string",
          "name": "",
          "type": "string"
        }
      ],
      "stateMutability": "view",
      "type": "function"
    },
    {
      "inputs": [],
      "name": "owner",
      "outputs": [
        {
          "internalType": "address",
          "name": "",
          "type": "address"
        }
      ],
      "stateMutability": "view",
      "type": "function"
    },
    {
      "inputs": [
        {
          "internalType": "address",
          "name": "toExclude",
          "type": "address"
        }
      ],
      "name": "removeFeeExclusion",
      "outputs": [],
      "stateMutability": "nonpayable",
      "type": "function"
    },
    {
      "inputs": [],
      "name": "renounceOwnership",
      "outputs": [],
      "stateMutability": "nonpayable",
      "type": "function"
    },
    {
      "inputs": [
        {
          "internalType": "uint256",
          "name": "fraction",
          "type": "uint256"
        }
      ],
      "name": "setFeeFraction",
      "outputs": [],
      "stateMutability": "nonpayable",
      "type": "function"
    },
    {
      "inputs": [
        {
          "internalType": "address",
          "name": "feeRecipient",
          "type": "address"
        }
      ],
      "name": "setFeeRecipient",
      "outputs": [],
      "stateMutability": "nonpayable",
      "type": "function"
    },
    {
      "inputs": [],
      "name": "symbol",
      "outputs": [
        {
          "internalType": "string",
          "name": "",
          "type": "string"
        }
      ],
      "stateMutability": "view",
      "type": "function"
    },
    {
      "inputs": [],
      "name": "totalSupply",
      "outputs": [
        {
          "internalType": "uint256",
          "name": "",
          "type": "uint256"
        }
      ],
      "stateMutability": "view",
      "type": "function"
    },
    {
      "inputs": [
        {
          "internalType": "address",
          "name": "to",
          "type": "address"
        },
        {
          "internalType": "uint256",
          "name": "amount",
          "type": "uint256"
        }
      ],
      "name": "transfer",
      "outputs": [
        {
          "internalType": "bool",
          "name": "",
          "type": "bool"
        }
      ],
      "stateMutability": "nonpayable",
      "type": "function"
    },
    {
      "inputs": [
        {
          "internalType": "address",
          "name": "from",
          "type": "address"
        },
        {
          "internalType": "address",
          "name": "to",
          "type": "address"
        },
        {
          "internalType": "uint256",
          "name": "amount",
          "type": "uint256"
        }
      ],
      "name": "transferFrom",
      "outputs": [
        {
          "internalType": "bool",
          "name": "",
          "type": "bool"
        }
      ],
      "stateMutability": "nonpayable",
      "type": "function"
    },
    {
      "inputs": [
        {
          "internalType": "address",
          "name": "newOwner",
          "type": "address"
        }
      ],
      "name": "transferOwnership",
      "outputs": [],
      "stateMutability": "nonpayable",
      "type": "function"
    }
  ],
  "bytecode": "0x60806040526103e86006553480156200001757600080fd5b5060405162002cbd38038062002cbd83398181016040528101906200003d91906200041e565b6040518060400160405280600881526020017f43455820436f696e0000000000000000000000000000000000000000000000008152506040518060400160405280600381526020017f43455800000000000000000000000000000000000000000000000000000000008152508160039081620000ba9190620006ca565b508060049081620000cc9190620006ca565b505050620000ef620000e36200016460201b60201c565b6200016c60201b60201c565b80600760006101000a81548173ffffffffffffffffffffffffffffffffffffffff021916908373ffffffffffffffffffffffffffffffffffffffff1602179055506200015d620001446200016460201b60201c565b6b02de89507556d846780000006200023260201b60201c565b50620008cc565b600033905090565b6000600560009054906101000a900473ffffffffffffffffffffffffffffffffffffffff16905081600560006101000a81548173ffffffffffffffffffffffffffffffffffffffff021916908373ffffffffffffffffffffffffffffffffffffffff1602179055508173ffffffffffffffffffffffffffffffffffffffff168173ffffffffffffffffffffffffffffffffffffffff167f8be0079c531659141344cd1fd0a4f28419497f9722a3daafe3b4186f6b6457e060405160405180910390a35050565b600073ffffffffffffffffffffffffffffffffffffffff168273ffffffffffffffffffffffffffffffffffffffff1603620002a4576040517f08c379a00000000000000000000000000000000000000000000000000000000081526004016200029b9062000812565b60405180910390fd5b620002b860008383620003aa60201b60201c565b8060026000828254620002cc919062000863565b92505081905550806000808473ffffffffffffffffffffffffffffffffffffffff1673ffffffffffffffffffffffffffffffffffffffff168152602001908152602001600020600082825462000323919062000863565b925050819055508173ffffffffffffffffffffffffffffffffffffffff16600073ffffffffffffffffffffffffffffffffffffffff167fddf252ad1be2c89b69c2b068fc378daa952ba7f163c4a11628f55a4df523b3ef836040516200038a9190620008af565b60405180910390a3620003a660008383620003af60201b60201c565b5050565b505050565b505050565b600080fd5b600073ffffffffffffffffffffffffffffffffffffffff82169050919050565b6000620003e682620003b9565b9050919050565b620003f881620003d9565b81146200040457600080fd5b50565b6000815190506200041881620003ed565b92915050565b600060208284031215620004375762000436620003b4565b5b6000620004478482850162000407565b91505092915050565b600081519050919050565b7f4e487b7100000000000000000000000000000000000000000000000000000000600052604160045260246000fd5b7f4e487b7100000000000000000000000000000000000000000000000000000000600052602260045260246000fd5b60006002820490506001821680620004d257607f821691505b602082108103620004e857620004e76200048a565b5b50919050565b60008190508160005260206000209050919050565b60006020601f8301049050919050565b600082821b905092915050565b600060088302620005527fffffffffffffffffffffffffffffffffffffffffffffffffffffffffffffffff8262000513565b6200055e868362000513565b95508019841693508086168417925050509392505050565b6000819050919050565b6000819050919050565b6000620005ab620005a56200059f8462000576565b62000580565b62000576565b9050919050565b6000819050919050565b620005c7836200058a565b620005df620005d682620005b2565b84845462000520565b825550505050565b600090565b620005f6620005e7565b62000603818484620005bc565b505050565b5b818110156200062b576200061f600082620005ec565b60018101905062000609565b5050565b601f8211156200067a576200064481620004ee565b6200064f8462000503565b810160208510156200065f578190505b620006776200066e8562000503565b83018262000608565b50505b505050565b600082821c905092915050565b60006200069f600019846008026200067f565b1980831691505092915050565b6000620006ba83836200068c565b9150826002028217905092915050565b620006d58262000450565b67ffffffffffffffff811115620006f157620006f06200045b565b5b620006fd8254620004b9565b6200070a8282856200062f565b600060209050601f8311600181146200074257600084156200072d578287015190505b620007398582620006ac565b865550620007a9565b601f1984166200075286620004ee565b60005b828110156200077c5784890151825560018201915060208501945060208101905062000755565b868310156200079c578489015162000798601f8916826200068c565b8355505b6001600288020188555050505b505050505050565b600082825260208201905092915050565b7f45524332303a206d696e7420746f20746865207a65726f206164647265737300600082015250565b6000620007fa601f83620007b1565b91506200080782620007c2565b602082019050919050565b600060208201905081810360008301526200082d81620007eb565b9050919050565b7f4e487b7100000000000000000000000000000000000000000000000000000000600052601160045260246000fd5b6000620008708262000576565b91506200087d8362000576565b925082820190508082111562000898576200089762000834565b5b92915050565b620008a98162000576565b82525050565b6000602082019050620008c660008301846200089e565b92915050565b6123e180620008dc6000396000f3fe608060405234801561001057600080fd5b50600436106101425760003560e01c80638da5cb5b116100b8578063c9bf8e461161007c578063c9bf8e461461038d578063dd62ed3e146103a9578063e74b981b146103d9578063ec5d35af146103f5578063ec94578e14610411578063f2fde38b1461042f57610142565b80638da5cb5b146102d357806395d89b41146102f1578063a457c2d71461030f578063a9059cbb1461033f578063c0cfc1101461036f57610142565b8063313ce5671161010a578063313ce567146101ff578063395093511461021d57806342966c681461024d578063594ffd6d1461026957806370a0823114610299578063715018a6146102c957610142565b806306fdde0314610147578063095ea7b31461016557806318160ddd1461019557806320ddf6c4146101b357806323b872dd146101cf575b600080fd5b61014f61044b565b60405161015c91906118b3565b60405180910390f35b61017f600480360381019061017a919061196e565b6104dd565b60405161018c91906119c9565b60405180910390f35b61019d610500565b6040516101aa91906119f3565b60405180910390f35b6101cd60048036038101906101c89190611a0e565b61050a565b005b6101e960048036038101906101e49190611a3b565b610590565b6040516101f691906119c9565b60405180910390f35b610207610757565b6040516102149190611aaa565b60405180910390f35b6102376004803603810190610232919061196e565b610760565b60405161024491906119c9565b60405180910390f35b61026760048036038101906102629190611a0e565b610797565b005b610283600480360381019061027e9190611ac5565b610866565b60405161029091906119c9565b60405180910390f35b6102b360048036038101906102ae9190611ac5565b610886565b6040516102c091906119f3565b60405180910390f35b6102d16108ce565b005b6102db610956565b6040516102e89190611b01565b60405180910390f35b6102f9610980565b60405161030691906118b3565b60405180910390f35b6103296004803603810190610324919061196e565b610a12565b60405161033691906119c9565b60405180910390f35b6103596004803603810190610354919061196e565b610a89565b60405161036691906119c9565b60405180910390f35b610377610bf0565b60405161038491906119f3565b60405180910390f35b6103a760048036038101906103a29190611ac5565b610bf6565b005b6103c360048036038101906103be9190611b1c565b610ccd565b6040516103d091906119f3565b60405180910390f35b6103f360048036038101906103ee9190611ac5565b610d54565b005b61040f600480360381019061040a9190611ac5565b610e83565b005b610419610f5a565b6040516104269190611b01565b60405180910390f35b61044960048036038101906104449190611ac5565b610f80565b005b60606003805461045a90611b8b565b80601f016020809104026020016040519081016040528092919081815260200182805461048690611b8b565b80156104d35780601f106104a8576101008083540402835291602001916104d3565b820191906000526020600020905b8154815290600101906020018083116104b657829003601f168201915b5050505050905090565b6000806104e8611077565b90506104f581858561107f565b600191505092915050565b6000600254905090565b610512611077565b73ffffffffffffffffffffffffffffffffffffffff16610530610956565b73ffffffffffffffffffffffffffffffffffffffff1614610586576040517f08c379a000000000000000000000000000000000000000000000000000000000815260040161057d90611c08565b60405180910390fd5b8060068190555050565b60008082116105d4576040517f08c379a00000000000000000000000000000000000000000000000000000000081526004016105cb90611c74565b60405180910390fd5b60006105de611077565b90506105eb858285611248565b60006105f6846112d4565b9050600860008773ffffffffffffffffffffffffffffffffffffffff1673ffffffffffffffffffffffffffffffffffffffff16815260200190815260200160002060009054906101000a900460ff16806106995750600860008673ffffffffffffffffffffffffffffffffffffffff1673ffffffffffffffffffffffffffffffffffffffff16815260200190815260200160002060009054906101000a900460ff165b806106ed5750600860008373ffffffffffffffffffffffffffffffffffffffff1673ffffffffffffffffffffffffffffffffffffffff16815260200190815260200160002060009054906101000a900460ff165b156106f757600090505b600081111561072e5761072d86600760009054906101000a900473ffffffffffffffffffffffffffffffffffffffff16836112fe565b5b6000818561073c9190611cc3565b90506107498787836112fe565b600193505050509392505050565b60006012905090565b60008061076b611077565b905061078c81858561077d8589610ccd565b6107879190611cf7565b61107f565b600191505092915050565b60006107a2826112d4565b9050600860006107b0611077565b73ffffffffffffffffffffffffffffffffffffffff1673ffffffffffffffffffffffffffffffffffffffff16815260200190815260200160002060009054906101000a900460ff161561080257600090505b60008111156108405761083f610816611077565b600760009054906101000a900473ffffffffffffffffffffffffffffffffffffffff16836112fe565b5b6000818361084e9190611cc3565b905061086161085b611077565b8261157d565b505050565b60086020528060005260406000206000915054906101000a900460ff1681565b60008060008373ffffffffffffffffffffffffffffffffffffffff1673ffffffffffffffffffffffffffffffffffffffff168152602001908152602001600020549050919050565b6108d6611077565b73ffffffffffffffffffffffffffffffffffffffff166108f4610956565b73ffffffffffffffffffffffffffffffffffffffff161461094a576040517f08c379a000000000000000000000000000000000000000000000000000000000815260040161094190611c08565b60405180910390fd5b6109546000611753565b565b6000600560009054906101000a900473ffffffffffffffffffffffffffffffffffffffff16905090565b60606004805461098f90611b8b565b80601f01602080910402602001604051908101604052809291908181526020018280546109bb90611b8b565b8015610a085780601f106109dd57610100808354040283529160200191610a08565b820191906000526020600020905b8154815290600101906020018083116109eb57829003601f168201915b5050505050905090565b600080610a1d611077565b90506000610a2b8286610ccd565b905083811015610a70576040517f08c379a0000000000000000000000000000000000000000000000000000000008152600401610a6790611d9d565b60405180910390fd5b610a7d828686840361107f565b60019250505092915050565b6000808211610acd576040517f08c379a0000000000000000000000000000000000000000000000000000000008152600401610ac490611c74565b60405180910390fd5b6000610ad7611077565b90506000610ae4846112d4565b9050600860008373ffffffffffffffffffffffffffffffffffffffff1673ffffffffffffffffffffffffffffffffffffffff16815260200190815260200160002060009054906101000a900460ff1680610b875750600860008673ffffffffffffffffffffffffffffffffffffffff1673ffffffffffffffffffffffffffffffffffffffff16815260200190815260200160002060009054906101000a900460ff165b15610b9157600090505b6000811115610bc857610bc782600760009054906101000a900473ffffffffffffffffffffffffffffffffffffffff16836112fe565b5b60008185610bd69190611cc3565b9050610be38387836112fe565b6001935050505092915050565b60065481565b610bfe611077565b73ffffffffffffffffffffffffffffffffffffffff16610c1c610956565b73ffffffffffffffffffffffffffffffffffffffff1614610c72576040517f08c379a0000000000000000000000000000000000000000000000000000000008152600401610c6990611c08565b60405180910390fd5b6001600860008373ffffffffffffffffffffffffffffffffffffffff1673ffffffffffffffffffffffffffffffffffffffff16815260200190815260200160002060006101000a81548160ff02191690831515021790555050565b6000600160008473ffffffffffffffffffffffffffffffffffffffff1673ffffffffffffffffffffffffffffffffffffffff16815260200190815260200160002060008373ffffffffffffffffffffffffffffffffffffffff1673ffffffffffffffffffffffffffffffffffffffff16815260200190815260200160002054905092915050565b610d5c611077565b73ffffffffffffffffffffffffffffffffffffffff16610d7a610956565b73ffffffffffffffffffffffffffffffffffffffff1614610dd0576040517f08c379a0000000000000000000000000000000000000000000000000000000008152600401610dc790611c08565b60405180910390fd5b600073ffffffffffffffffffffffffffffffffffffffff168173ffffffffffffffffffffffffffffffffffffffff1603610e3f576040517f08c379a0000000000000000000000000000000000000000000000000000000008152600401610e3690611e2f565b60405180910390fd5b80600760006101000a81548173ffffffffffffffffffffffffffffffffffffffff021916908373ffffffffffffffffffffffffffffffffffffffff16021790555050565b610e8b611077565b73ffffffffffffffffffffffffffffffffffffffff16610ea9610956565b73ffffffffffffffffffffffffffffffffffffffff1614610eff576040517f08c379a0000000000000000000000000000000000000000000000000000000008152600401610ef690611c08565b60405180910390fd5b6000600860008373ffffffffffffffffffffffffffffffffffffffff1673ffffffffffffffffffffffffffffffffffffffff16815260200190815260200160002060006101000a81548160ff02191690831515021790555050565b600760009054906101000a900473ffffffffffffffffffffffffffffffffffffffff1681565b610f88611077565b73ffffffffffffffffffffffffffffffffffffffff16610fa6610956565b73ffffffffffffffffffffffffffffffffffffffff1614610ffc576040517f08c379a0000000000000000000000000000000000000000000000000000000008152600401610ff390611c08565b60405180910390fd5b600073ffffffffffffffffffffffffffffffffffffffff168173ffffffffffffffffffffffffffffffffffffffff160361106b576040517f08c379a000000000000000000000000000000000000000000000000000000000815260040161106290611ec1565b60405180910390fd5b61107481611753565b50565b600033905090565b600073ffffffffffffffffffffffffffffffffffffffff168373ffffffffffffffffffffffffffffffffffffffff16036110ee576040517f08c379a00000000000000000000000000000000000000000000000000000000081526004016110e590611f53565b60405180910390fd5b600073ffffffffffffffffffffffffffffffffffffffff168273ffffffffffffffffffffffffffffffffffffffff160361115d576040517f08c379a000000000000000000000000000000000000000000000000000000000815260040161115490611fe5565b60405180910390fd5b80600160008573ffffffffffffffffffffffffffffffffffffffff1673ffffffffffffffffffffffffffffffffffffffff16815260200190815260200160002060008473ffffffffffffffffffffffffffffffffffffffff1673ffffffffffffffffffffffffffffffffffffffff168152602001908152602001600020819055508173ffffffffffffffffffffffffffffffffffffffff168373ffffffffffffffffffffffffffffffffffffffff167f8c5be1e5ebec7d5bd14f71427d1e84f3dd0314c0f7b2291e5b200ac8c7c3b9258360405161123b91906119f3565b60405180910390a3505050565b60006112548484610ccd565b90507fffffffffffffffffffffffffffffffffffffffffffffffffffffffffffffffff81146112ce57818110156112c0576040517f08c379a00000000000000000000000000000000000000000000000000000000081526004016112b790612051565b60405180910390fd5b6112cd848484840361107f565b5b50505050565b600080600654036112e857600090506112f9565b600654826112f691906120a0565b90505b919050565b600073ffffffffffffffffffffffffffffffffffffffff168373ffffffffffffffffffffffffffffffffffffffff160361136d576040517f08c379a000000000000000000000000000000000000000000000000000000000815260040161136490612143565b60405180910390fd5b600073ffffffffffffffffffffffffffffffffffffffff168273ffffffffffffffffffffffffffffffffffffffff16036113dc576040517f08c379a00000000000000000000000000000000000000000000000000000000081526004016113d3906121d5565b60405180910390fd5b6113e7838383611819565b60008060008573ffffffffffffffffffffffffffffffffffffffff1673ffffffffffffffffffffffffffffffffffffffff1681526020019081526020016000205490508181101561146d576040517f08c379a000000000000000000000000000000000000000000000000000000000815260040161146490612267565b60405180910390fd5b8181036000808673ffffffffffffffffffffffffffffffffffffffff1673ffffffffffffffffffffffffffffffffffffffff16815260200190815260200160002081905550816000808573ffffffffffffffffffffffffffffffffffffffff1673ffffffffffffffffffffffffffffffffffffffff16815260200190815260200160002060008282546115009190611cf7565b925050819055508273ffffffffffffffffffffffffffffffffffffffff168473ffffffffffffffffffffffffffffffffffffffff167fddf252ad1be2c89b69c2b068fc378daa952ba7f163c4a11628f55a4df523b3ef8460405161156491906119f3565b60405180910390a361157784848461181e565b50505050565b600073ffffffffffffffffffffffffffffffffffffffff168273ffffffffffffffffffffffffffffffffffffffff16036115ec576040517f08c379a00000000000000000000000000000000000000000000000000000000081526004016115e3906122f9565b60405180910390fd5b6115f882600083611819565b60008060008473ffffffffffffffffffffffffffffffffffffffff1673ffffffffffffffffffffffffffffffffffffffff1681526020019081526020016000205490508181101561167e576040517f08c379a00000000000000000000000000000000000000000000000000000000081526004016116759061238b565b60405180910390fd5b8181036000808573ffffffffffffffffffffffffffffffffffffffff1673ffffffffffffffffffffffffffffffffffffffff1681526020019081526020016000208190555081600260008282546116d59190611cc3565b92505081905550600073ffffffffffffffffffffffffffffffffffffffff168373ffffffffffffffffffffffffffffffffffffffff167fddf252ad1be2c89b69c2b068fc378daa952ba7f163c4a11628f55a4df523b3ef8460405161173a91906119f3565b60405180910390a361174e8360008461181e565b505050565b6000600560009054906101000a900473ffffffffffffffffffffffffffffffffffffffff16905081600560006101000a81548173ffffffffffffffffffffffffffffffffffffffff021916908373ffffffffffffffffffffffffffffffffffffffff1602179055508173ffffffffffffffffffffffffffffffffffffffff168173ffffffffffffffffffffffffffffffffffffffff167f8be0079c531659141344cd1fd0a4f28419497f9722a3daafe3b4186f6b6457e060405160405180910390a35050565b505050565b505050565b600081519050919050565b600082825260208201905092915050565b60005b8381101561185d578082015181840152602081019050611842565b60008484015250505050565b6000601f19601f8301169050919050565b600061188582611823565b61188f818561182e565b935061189f81856020860161183f565b6118a881611869565b840191505092915050565b600060208201905081810360008301526118cd818461187a565b905092915050565b600080fd5b600073ffffffffffffffffffffffffffffffffffffffff82169050919050565b6000611905826118da565b9050919050565b611915816118fa565b811461192057600080fd5b50565b6000813590506119328161190c565b92915050565b6000819050919050565b61194b81611938565b811461195657600080fd5b50565b60008135905061196881611942565b92915050565b60008060408385031215611985576119846118d5565b5b600061199385828601611923565b92505060206119a485828601611959565b9150509250929050565b60008115159050919050565b6119c3816119ae565b82525050565b60006020820190506119de60008301846119ba565b92915050565b6119ed81611938565b82525050565b6000602082019050611a0860008301846119e4565b92915050565b600060208284031215611a2457611a236118d5565b5b6000611a3284828501611959565b91505092915050565b600080600060608486031215611a5457611a536118d5565b5b6000611a6286828701611923565b9350506020611a7386828701611923565b9250506040611a8486828701611959565b9150509250925092565b600060ff82169050919050565b611aa481611a8e565b82525050565b6000602082019050611abf6000830184611a9b565b92915050565b600060208284031215611adb57611ada6118d5565b5b6000611ae984828501611923565b91505092915050565b611afb816118fa565b82525050565b6000602082019050611b166000830184611af2565b92915050565b60008060408385031215611b3357611b326118d5565b5b6000611b4185828601611923565b9250506020611b5285828601611923565b9150509250929050565b7f4e487b7100000000000000000000000000000000000000000000000000000000600052602260045260246000fd5b60006002820490506001821680611ba357607f821691505b602082108103611bb657611bb5611b5c565b5b50919050565b7f4f776e61626c653a2063616c6c6572206973206e6f7420746865206f776e6572600082015250565b6000611bf260208361182e565b9150611bfd82611bbc565b602082019050919050565b60006020820190508181036000830152611c2181611be5565b9050919050565b7f416d6f756e74206d7573742062652067726561746572207468616e207a65726f600082015250565b6000611c5e60208361182e565b9150611c6982611c28565b602082019050919050565b60006020820190508181036000830152611c8d81611c51565b9050919050565b7f4e487b7100000000000000000000000000000000000000000000000000000000600052601160045260246000fd5b6000611cce82611938565b9150611cd983611938565b9250828203905081811115611cf157611cf0611c94565b5b92915050565b6000611d0282611938565b9150611d0d83611938565b9250828201905080821115611d2557611d24611c94565b5b92915050565b7f45524332303a2064656372656173656420616c6c6f77616e63652062656c6f7760008201527f207a65726f000000000000000000000000000000000000000000000000000000602082015250565b6000611d8760258361182e565b9150611d9282611d2b565b604082019050919050565b60006020820190508181036000830152611db681611d7a565b9050919050565b7f46656520726563697069656e742063616e6e6f74206265207a65726f2061646460008201527f7265737300000000000000000000000000000000000000000000000000000000602082015250565b6000611e1960248361182e565b9150611e2482611dbd565b604082019050919050565b60006020820190508181036000830152611e4881611e0c565b9050919050565b7f4f776e61626c653a206e6577206f776e657220697320746865207a65726f206160008201527f6464726573730000000000000000000000000000000000000000000000000000602082015250565b6000611eab60268361182e565b9150611eb682611e4f565b604082019050919050565b60006020820190508181036000830152611eda81611e9e565b9050919050565b7f45524332303a20617070726f76652066726f6d20746865207a65726f2061646460008201527f7265737300000000000000000000000000000000000000000000000000000000602082015250565b6000611f3d60248361182e565b9150611f4882611ee1565b604082019050919050565b60006020820190508181036000830152611f6c81611f30565b9050919050565b7f45524332303a20617070726f766520746f20746865207a65726f20616464726560008201527f7373000000000000000000000000000000000000000000000000000000000000602082015250565b6000611fcf60228361182e565b9150611fda82611f73565b604082019050919050565b60006020820190508181036000830152611ffe81611fc2565b9050919050565b7f45524332303a20696e73756666696369656e7420616c6c6f77616e6365000000600082015250565b600061203b601d8361182e565b915061204682612005565b602082019050919050565b6000602082019050818103600083015261206a8161202e565b9050919050565b7f4e487b7100000000000000000000000000000000000000000000000000000000600052601260045260246000fd5b60006120ab82611938565b91506120b683611938565b9250826120c6576120c5612071565b5b828204905092915050565b7f45524332303a207472616e736665722066726f6d20746865207a65726f20616460008201527f6472657373000000000000000000000000000000000000000000000000000000602082015250565b600061212d60258361182e565b9150612138826120d1565b604082019050919050565b6000602082019050818103600083015261215c81612120565b9050919050565b7f45524332303a207472616e7366657220746f20746865207a65726f206164647260008201527f6573730000000000000000000000000000000000000000000000000000000000602082015250565b60006121bf60238361182e565b91506121ca82612163565b604082019050919050565b600060208201905081810360008301526121ee816121b2565b9050919050565b7f45524332303a207472616e7366657220616d6f756e742065786365656473206260008201527f616c616e63650000000000000000000000000000000000000000000000000000602082015250565b600061225160268361182e565b915061225c826121f5565b604082019050919050565b6000602082019050818103600083015261228081612244565b9050919050565b7f45524332303a206275726e2066726f6d20746865207a65726f2061646472657360008201527f7300000000000000000000000000000000000000000000000000000000000000602082015250565b60006122e360218361182e565b91506122ee82612287565b604082019050919050565b60006020820190508181036000830152612312816122d6565b9050919050565b7f45524332303a206275726e20616d6f756e7420657863656564732062616c616e60008201527f6365000000000000000000000000000000000000000000000000000000000000602082015250565b600061237560228361182e565b915061238082612319565b604082019050919050565b600060208201905081810360008301526123a481612368565b905091905056fea26469706673582212203c96fa4a7378459edd5818e58e20f7d98fb0799269655f1616e09217103d470b64736f6c63430008110033",
  "linkReferences": {},
  "deployedLinkReferences": {}
}