{
  "_format": "hh-sol-artifact-1",
  "contractName": "LPStaking",
  "sourceName": "contracts/Staking/LPStaking.sol",
  "abi": [
    {
      "inputs": [
        {
          "internalType": "address",
          "name": "_rewardsToken",
          "type": "address"
        },
        {
          "internalType": "address",
          "name": "_stakingToken",
          "type": "address"
        }
      ],
      "stateMutability": "nonpayable",
      "type": "constructor"
    },
    {
      "anonymous": false,
      "inputs": [
        {
          "indexed": true,
          "internalType": "address",
          "name": "previousOwner",
          "type": "address"
        },
        {
          "indexed": true,
          "internalType": "address",
          "name": "newOwner",
          "type": "address"
        }
      ],
      "name": "OwnershipTransferred",
      "type": "event"
    },
    {
      "anonymous": false,
      "inputs": [
        {
          "indexed": true,
          "internalType": "address",
          "name": "token",
          "type": "address"
        },
        {
          "indexed": true,
          "internalType": "uint256",
          "name": "amount",
          "type": "uint256"
        }
      ],
      "name": "Recovered",
      "type": "event"
    },
    {
      "anonymous": false,
      "inputs": [
        {
          "indexed": true,
          "internalType": "uint256",
          "name": "reward",
          "type": "uint256"
        }
      ],
      "name": "RewardAdded",
      "type": "event"
    },
    {
      "anonymous": false,
      "inputs": [
        {
          "indexed": true,
          "internalType": "address",
          "name": "user",
          "type": "address"
        },
        {
          "indexed": true,
          "internalType": "uint256",
          "name": "reward",
          "type": "uint256"
        }
      ],
      "name": "RewardPaid",
      "type": "event"
    },
    {
      "anonymous": false,
      "inputs": [
        {
          "indexed": true,
          "internalType": "uint256",
          "name": "newDuration",
          "type": "uint256"
        }
      ],
      "name": "RewardsDurationUpdated",
      "type": "event"
    },
    {
      "anonymous": false,
      "inputs": [
        {
          "indexed": true,
          "internalType": "address",
          "name": "user",
          "type": "address"
        },
        {
          "indexed": true,
          "internalType": "uint256",
          "name": "amount",
          "type": "uint256"
        }
      ],
      "name": "Staked",
      "type": "event"
    },
    {
      "anonymous": false,
      "inputs": [
        {
          "indexed": true,
          "internalType": "address",
          "name": "user",
          "type": "address"
        },
        {
          "indexed": true,
          "internalType": "uint256",
          "name": "amount",
          "type": "uint256"
        }
      ],
      "name": "Withdrawn",
      "type": "event"
    },
    {
      "inputs": [
        {
          "internalType": "address",
          "name": "account",
          "type": "address"
        }
      ],
      "name": "balanceOf",
      "outputs": [
        {
          "internalType": "uint256",
          "name": "",
          "type": "uint256"
        }
      ],
      "stateMutability": "view",
      "type": "function"
    },
    {
      "inputs": [
        {
          "internalType": "address",
          "name": "account",
          "type": "address"
        }
      ],
      "name": "earned",
      "outputs": [
        {
          "internalType": "uint256",
          "name": "",
          "type": "uint256"
        }
      ],
      "stateMutability": "view",
      "type": "function"
    },
    {
      "inputs": [],
      "name": "exit",
      "outputs": [],
      "stateMutability": "nonpayable",
      "type": "function"
    },
    {
      "inputs": [],
      "name": "getReward",
      "outputs": [],
      "stateMutability": "nonpayable",
      "type": "function"
    },
    {
      "inputs": [],
      "name": "getRewardForDuration",
      "outputs": [
        {
          "internalType": "uint256",
          "name": "",
          "type": "uint256"
        }
      ],
      "stateMutability": "view",
      "type": "function"
    },
    {
      "inputs": [],
      "name": "lastTimeRewardApplicable",
      "outputs": [
        {
          "internalType": "uint256",
          "name": "",
          "type": "uint256"
        }
      ],
      "stateMutability": "view",
      "type": "function"
    },
    {
      "inputs": [],
      "name": "lastUpdateTime",
      "outputs": [
        {
          "internalType": "uint256",
          "name": "",
          "type": "uint256"
        }
      ],
      "stateMutability": "view",
      "type": "function"
    },
    {
      "inputs": [
        {
          "internalType": "uint256",
          "name": "reward",
          "type": "uint256"
        }
      ],
      "name": "notifyRewardAmount",
      "outputs": [],
      "stateMutability": "nonpayable",
      "type": "function"
    },
    {
      "inputs": [],
      "name": "owner",
      "outputs": [
        {
          "internalType": "address",
          "name": "",
          "type": "address"
        }
      ],
      "stateMutability": "view",
      "type": "function"
    },
    {
      "inputs": [],
      "name": "periodFinish",
      "outputs": [
        {
          "internalType": "uint256",
          "name": "",
          "type": "uint256"
        }
      ],
      "stateMutability": "view",
      "type": "function"
    },
    {
      "inputs": [
        {
          "internalType": "address",
          "name": "tokenAddress",
          "type": "address"
        },
        {
          "internalType": "uint256",
          "name": "tokenAmount",
          "type": "uint256"
        }
      ],
      "name": "recoverERC20",
      "outputs": [],
      "stateMutability": "nonpayable",
      "type": "function"
    },
    {
      "inputs": [],
      "name": "renounceOwnership",
      "outputs": [],
      "stateMutability": "nonpayable",
      "type": "function"
    },
    {
      "inputs": [],
      "name": "rewardPerToken",
      "outputs": [
        {
          "internalType": "uint256",
          "name": "",
          "type": "uint256"
        }
      ],
      "stateMutability": "view",
      "type": "function"
    },
    {
      "inputs": [],
      "name": "rewardPerTokenStored",
      "outputs": [
        {
          "internalType": "uint256",
          "name": "",
          "type": "uint256"
        }
      ],
      "stateMutability": "view",
      "type": "function"
    },
    {
      "inputs": [],
      "name": "rewardRate",
      "outputs": [
        {
          "internalType": "uint256",
          "name": "",
          "type": "uint256"
        }
      ],
      "stateMutability": "view",
      "type": "function"
    },
    {
      "inputs": [
        {
          "internalType": "address",
          "name": "",
          "type": "address"
        }
      ],
      "name": "rewards",
      "outputs": [
        {
          "internalType": "uint256",
          "name": "",
          "type": "uint256"
        }
      ],
      "stateMutability": "view",
      "type": "function"
    },
    {
      "inputs": [],
      "name": "rewardsDuration",
      "outputs": [
        {
          "internalType": "uint256",
          "name": "",
          "type": "uint256"
        }
      ],
      "stateMutability": "view",
      "type": "function"
    },
    {
      "inputs": [],
      "name": "rewardsToken",
      "outputs": [
        {
          "internalType": "contract IERC20",
          "name": "",
          "type": "address"
        }
      ],
      "stateMutability": "view",
      "type": "function"
    },
    {
      "inputs": [
        {
          "internalType": "uint256",
          "name": "_rewardsDuration",
          "type": "uint256"
        }
      ],
      "name": "setRewardsDuration",
      "outputs": [],
      "stateMutability": "nonpayable",
      "type": "function"
    },
    {
      "inputs": [
        {
          "internalType": "uint256",
          "name": "amount",
          "type": "uint256"
        }
      ],
      "name": "stake",
      "outputs": [],
      "stateMutability": "nonpayable",
      "type": "function"
    },
    {
      "inputs": [],
      "name": "stakingToken",
      "outputs": [
        {
          "internalType": "contract IERC20",
          "name": "",
          "type": "address"
        }
      ],
      "stateMutability": "view",
      "type": "function"
    },
    {
      "inputs": [],
      "name": "totalSupply",
      "outputs": [
        {
          "internalType": "uint256",
          "name": "",
          "type": "uint256"
        }
      ],
      "stateMutability": "view",
      "type": "function"
    },
    {
      "inputs": [
        {
          "internalType": "address",
          "name": "newOwner",
          "type": "address"
        }
      ],
      "name": "transferOwnership",
      "outputs": [],
      "stateMutability": "nonpayable",
      "type": "function"
    },
    {
      "inputs": [
        {
          "internalType": "address",
          "name": "",
          "type": "address"
        }
      ],
      "name": "userRewardPerTokenPaid",
      "outputs": [
        {
          "internalType": "uint256",
          "name": "",
          "type": "uint256"
        }
      ],
      "stateMutability": "view",
      "type": "function"
    },
    {
      "inputs": [
        {
          "internalType": "uint256",
          "name": "amount",
          "type": "uint256"
        }
      ],
      "name": "withdraw",
      "outputs": [],
      "stateMutability": "nonpayable",
      "type": "function"
    }
  ],
  "bytecode": "0x60806040526000600455600060055562093a806006553480156200002257600080fd5b50604051620028d7380380620028d7833981810160405281019062000048919062000232565b60016000819055506200007062000064620000fa60201b60201c565b6200010260201b60201c565b81600260006101000a81548173ffffffffffffffffffffffffffffffffffffffff021916908373ffffffffffffffffffffffffffffffffffffffff16021790555080600360006101000a81548173ffffffffffffffffffffffffffffffffffffffff021916908373ffffffffffffffffffffffffffffffffffffffff160217905550505062000279565b600033905090565b6000600160009054906101000a900473ffffffffffffffffffffffffffffffffffffffff16905081600160006101000a81548173ffffffffffffffffffffffffffffffffffffffff021916908373ffffffffffffffffffffffffffffffffffffffff1602179055508173ffffffffffffffffffffffffffffffffffffffff168173ffffffffffffffffffffffffffffffffffffffff167f8be0079c531659141344cd1fd0a4f28419497f9722a3daafe3b4186f6b6457e060405160405180910390a35050565b600080fd5b600073ffffffffffffffffffffffffffffffffffffffff82169050919050565b6000620001fa82620001cd565b9050919050565b6200020c81620001ed565b81146200021857600080fd5b50565b6000815190506200022c8162000201565b92915050565b600080604083850312156200024c576200024b620001c8565b5b60006200025c858286016200021b565b92505060206200026f858286016200021b565b9150509250929050565b61264e80620002896000396000f3fe608060405234801561001057600080fd5b50600436106101725760003560e01c806380faa57d116100de578063cc1a378f11610097578063df136d6511610071578063df136d6514610403578063e9fad8ee14610421578063ebe2b12b1461042b578063f2fde38b1461044957610172565b8063cc1a378f146103ab578063cd3daf9d146103c7578063d1af0c7d146103e557610172565b806380faa57d146102e95780638980f11f146103075780638b876347146103235780638da5cb5b14610353578063a694fc3a14610371578063c8f33c911461038d57610172565b80633c6b16ab116101305780633c6b16ab1461024d5780633d18b9121461026957806370a0823114610273578063715018a6146102a357806372f702f3146102ad5780637b0a47ee146102cb57610172565b80628cc262146101775780630700037d146101a757806318160ddd146101d75780631c1f78eb146101f55780632e1a7d4d14610213578063386a95251461022f575b600080fd5b610191600480360381019061018c9190611c9e565b610465565b60405161019e9190611ce4565b60405180910390f35b6101c160048036038101906101bc9190611c9e565b610567565b6040516101ce9190611ce4565b60405180910390f35b6101df61057f565b6040516101ec9190611ce4565b60405180910390f35b6101fd610589565b60405161020a9190611ce4565b60405180910390f35b61022d60048036038101906102289190611d2b565b6105a0565b005b610237610971565b6040516102449190611ce4565b60405180910390f35b61026760048036038101906102629190611d2b565b610977565b005b610271610c7f565b005b61028d60048036038101906102889190611c9e565b610f57565b60405161029a9190611ce4565b60405180910390f35b6102ab610fa0565b005b6102b5611028565b6040516102c29190611db7565b60405180910390f35b6102d361104e565b6040516102e09190611ce4565b60405180910390f35b6102f1611054565b6040516102fe9190611ce4565b60405180910390f35b610321600480360381019061031c9190611dd2565b61106e565b005b61033d60048036038101906103389190611c9e565b6112d8565b60405161034a9190611ce4565b60405180910390f35b61035b6112f0565b6040516103689190611e21565b60405180910390f35b61038b60048036038101906103869190611d2b565b61131a565b005b6103956116f3565b6040516103a29190611ce4565b60405180910390f35b6103c560048036038101906103c09190611d2b565b6116f9565b005b6103cf6117f2565b6040516103dc9190611ce4565b60405180910390f35b6103ed61185c565b6040516103fa9190611db7565b60405180910390f35b61040b611882565b6040516104189190611ce4565b60405180910390f35b610429611888565b005b6104336118d9565b6040516104409190611ce4565b60405180910390f35b610463600480360381019061045e9190611c9e565b6118df565b005b6000600a60008373ffffffffffffffffffffffffffffffffffffffff1673ffffffffffffffffffffffffffffffffffffffff16815260200190815260200160002054670de0b6b3a7640000600960008573ffffffffffffffffffffffffffffffffffffffff1673ffffffffffffffffffffffffffffffffffffffff168152602001908152602001600020546104f86117f2565b6105029190611e6b565b600c60008673ffffffffffffffffffffffffffffffffffffffff1673ffffffffffffffffffffffffffffffffffffffff1681526020019081526020016000205461054c9190611e9f565b6105569190611f10565b6105609190611f41565b9050919050565b600a6020528060005260406000206000915090505481565b6000600b54905090565b600060065460055461059b9190611e9f565b905090565b6002600054036105e5576040517f08c379a00000000000000000000000000000000000000000000000000000000081526004016105dc90611fd2565b60405180910390fd5b60026000819055506105f56119d6565b6105fd6117f2565b60088190555061060b611054565b600781905550600073ffffffffffffffffffffffffffffffffffffffff168173ffffffffffffffffffffffffffffffffffffffff16146106d85761064e81610465565b600a60008373ffffffffffffffffffffffffffffffffffffffff1673ffffffffffffffffffffffffffffffffffffffff16815260200190815260200160002081905550600854600960008373ffffffffffffffffffffffffffffffffffffffff1673ffffffffffffffffffffffffffffffffffffffff168152602001908152602001600020819055505b6000821161071b576040517f08c379a00000000000000000000000000000000000000000000000000000000081526004016107129061203e565b60405180910390fd5b81600c60006107286119d6565b73ffffffffffffffffffffffffffffffffffffffff1673ffffffffffffffffffffffffffffffffffffffff1681526020019081526020016000205410156107a4576040517f08c379a000000000000000000000000000000000000000000000000000000000815260040161079b906120aa565b60405180910390fd5b81600b60008282546107b69190611e6b565b9250508190555081600c60006107ca6119d6565b73ffffffffffffffffffffffffffffffffffffffff1673ffffffffffffffffffffffffffffffffffffffff16815260200190815260200160002060008282546108139190611e6b565b92505081905550600360009054906101000a900473ffffffffffffffffffffffffffffffffffffffff1673ffffffffffffffffffffffffffffffffffffffff1663a9059cbb6108606119d6565b846040518363ffffffff1660e01b815260040161087e9291906120ca565b6020604051808303816000875af115801561089d573d6000803e3d6000fd5b505050506040513d601f19601f820116820180604052508101906108c1919061212b565b506000600a60006108d06119d6565b73ffffffffffffffffffffffffffffffffffffffff1673ffffffffffffffffffffffffffffffffffffffff16815260200190815260200160002054111561091a576109196119de565b5b816109236119d6565b73ffffffffffffffffffffffffffffffffffffffff167f7084f5476618d8e60b11ef0d7d3f06914655adb8793e28ff7f018d4c76d505d560405160405180910390a350600160008190555050565b60065481565b61097f6119d6565b73ffffffffffffffffffffffffffffffffffffffff1661099d6112f0565b73ffffffffffffffffffffffffffffffffffffffff16146109f3576040517f08c379a00000000000000000000000000000000000000000000000000000000081526004016109ea906121a4565b60405180910390fd5b60006109fd6117f2565b600881905550610a0b611054565b600781905550600073ffffffffffffffffffffffffffffffffffffffff168173ffffffffffffffffffffffffffffffffffffffff1614610ad857610a4e81610465565b600a60008373ffffffffffffffffffffffffffffffffffffffff1673ffffffffffffffffffffffffffffffffffffffff16815260200190815260200160002081905550600854600960008373ffffffffffffffffffffffffffffffffffffffff1673ffffffffffffffffffffffffffffffffffffffff168152602001908152602001600020819055505b6004544210610afa5760065482610aef9190611f10565b600581905550610b40565b600042600454610b0a9190611e6b565b9050600060055482610b1c9190611e9f565b90506006548185610b2d9190611f41565b610b379190611f10565b60058190555050505b6000600260009054906101000a900473ffffffffffffffffffffffffffffffffffffffff1673ffffffffffffffffffffffffffffffffffffffff166370a08231306040518263ffffffff1660e01b8152600401610b9d9190611e21565b602060405180830381865afa158015610bba573d6000803e3d6000fd5b505050506040513d601f19601f82011682018060405250810190610bde91906121d9565b905060065481610bee9190611f10565b6005541115610c32576040517f08c379a0000000000000000000000000000000000000000000000000000000008152600401610c2990612252565b60405180910390fd5b4260078190555060065442610c479190611f41565b600481905550827fde88a922e0d3b88b24e9623efeb464919c6bf9f66857a65e2bfcf2ce87a9433d60405160405180910390a2505050565b600260005403610cc4576040517f08c379a0000000000000000000000000000000000000000000000000000000008152600401610cbb90611fd2565b60405180910390fd5b6002600081905550610cd46119d6565b610cdc6117f2565b600881905550610cea611054565b600781905550600073ffffffffffffffffffffffffffffffffffffffff168173ffffffffffffffffffffffffffffffffffffffff1614610db757610d2d81610465565b600a60008373ffffffffffffffffffffffffffffffffffffffff1673ffffffffffffffffffffffffffffffffffffffff16815260200190815260200160002081905550600854600960008373ffffffffffffffffffffffffffffffffffffffff1673ffffffffffffffffffffffffffffffffffffffff168152602001908152602001600020819055505b6000600a6000610dc56119d6565b73ffffffffffffffffffffffffffffffffffffffff1673ffffffffffffffffffffffffffffffffffffffff1681526020019081526020016000205490506000811115610f4b576000600a6000610e196119d6565b73ffffffffffffffffffffffffffffffffffffffff1673ffffffffffffffffffffffffffffffffffffffff16815260200190815260200160002081905550600260009054906101000a900473ffffffffffffffffffffffffffffffffffffffff1673ffffffffffffffffffffffffffffffffffffffff1663a9059cbb610e9d6119d6565b836040518363ffffffff1660e01b8152600401610ebb9291906120ca565b6020604051808303816000875af1158015610eda573d6000803e3d6000fd5b505050506040513d601f19601f82011682018060405250810190610efe919061212b565b5080610f086119d6565b73ffffffffffffffffffffffffffffffffffffffff167fe2403640ba68fed3a2f88b7557551d1993f84b99bb10ff833f0cf8db0c5e048660405160405180910390a35b50506001600081905550565b6000600c60008373ffffffffffffffffffffffffffffffffffffffff1673ffffffffffffffffffffffffffffffffffffffff168152602001908152602001600020549050919050565b610fa86119d6565b73ffffffffffffffffffffffffffffffffffffffff16610fc66112f0565b73ffffffffffffffffffffffffffffffffffffffff161461101c576040517f08c379a0000000000000000000000000000000000000000000000000000000008152600401611013906121a4565b60405180910390fd5b6110266000611b75565b565b600360009054906101000a900473ffffffffffffffffffffffffffffffffffffffff1681565b60055481565b6000600454421061106757600454611069565b425b905090565b6110766119d6565b73ffffffffffffffffffffffffffffffffffffffff166110946112f0565b73ffffffffffffffffffffffffffffffffffffffff16146110ea576040517f08c379a00000000000000000000000000000000000000000000000000000000081526004016110e1906121a4565b60405180910390fd5b600360009054906101000a900473ffffffffffffffffffffffffffffffffffffffff1673ffffffffffffffffffffffffffffffffffffffff168273ffffffffffffffffffffffffffffffffffffffff160361117a576040517f08c379a0000000000000000000000000000000000000000000000000000000008152600401611171906122e4565b60405180910390fd5b600260009054906101000a900473ffffffffffffffffffffffffffffffffffffffff1673ffffffffffffffffffffffffffffffffffffffff168273ffffffffffffffffffffffffffffffffffffffff160361120a576040517f08c379a000000000000000000000000000000000000000000000000000000000815260040161120190612350565b60405180910390fd5b8173ffffffffffffffffffffffffffffffffffffffff1663a9059cbb61122e6112f0565b836040518363ffffffff1660e01b815260040161124c9291906120ca565b6020604051808303816000875af115801561126b573d6000803e3d6000fd5b505050506040513d601f19601f8201168201806040525081019061128f919061212b565b50808273ffffffffffffffffffffffffffffffffffffffff167f8c1256b8896378cd5044f80c202f9772b9d77dc85c8a6eb51967210b09bfaa2860405160405180910390a35050565b60096020528060005260406000206000915090505481565b6000600160009054906101000a900473ffffffffffffffffffffffffffffffffffffffff16905090565b60026000540361135f576040517f08c379a000000000000000000000000000000000000000000000000000000000815260040161135690611fd2565b60405180910390fd5b600260008190555061136f6119d6565b6113776117f2565b600881905550611385611054565b600781905550600073ffffffffffffffffffffffffffffffffffffffff168173ffffffffffffffffffffffffffffffffffffffff1614611452576113c881610465565b600a60008373ffffffffffffffffffffffffffffffffffffffff1673ffffffffffffffffffffffffffffffffffffffff16815260200190815260200160002081905550600854600960008373ffffffffffffffffffffffffffffffffffffffff1673ffffffffffffffffffffffffffffffffffffffff168152602001908152602001600020819055505b60008211611495576040517f08c379a000000000000000000000000000000000000000000000000000000000815260040161148c906123bc565b60405180910390fd5b81600360009054906101000a900473ffffffffffffffffffffffffffffffffffffffff1673ffffffffffffffffffffffffffffffffffffffff1663dd62ed3e6114dc6119d6565b306040518363ffffffff1660e01b81526004016114fa9291906123dc565b602060405180830381865afa158015611517573d6000803e3d6000fd5b505050506040513d601f19601f8201168201806040525081019061153b91906121d9565b101561157c576040517f08c379a000000000000000000000000000000000000000000000000000000000815260040161157390612477565b60405180910390fd5b81600b600082825461158e9190611f41565b9250508190555081600c60006115a26119d6565b73ffffffffffffffffffffffffffffffffffffffff1673ffffffffffffffffffffffffffffffffffffffff16815260200190815260200160002060008282546115eb9190611f41565b92505081905550600360009054906101000a900473ffffffffffffffffffffffffffffffffffffffff1673ffffffffffffffffffffffffffffffffffffffff166323b872dd6116386119d6565b30856040518463ffffffff1660e01b815260040161165893929190612497565b6020604051808303816000875af1158015611677573d6000803e3d6000fd5b505050506040513d601f19601f8201168201806040525081019061169b919061212b565b50816116a56119d6565b73ffffffffffffffffffffffffffffffffffffffff167f9e71bc8eea02a63969f509818f2dafb9254532904319f9dbda79b67bd34a5f3d60405160405180910390a350600160008190555050565b60075481565b6117016119d6565b73ffffffffffffffffffffffffffffffffffffffff1661171f6112f0565b73ffffffffffffffffffffffffffffffffffffffff1614611775576040517f08c379a000000000000000000000000000000000000000000000000000000000815260040161176c906121a4565b60405180910390fd5b60045442116117b9576040517f08c379a00000000000000000000000000000000000000000000000000000000081526004016117b090612566565b60405180910390fd5b806006819055506006547ffb46ca5a5e06d4540d6387b930a7c978bce0db5f449ec6b3f5d07c6e1d44f2d360405160405180910390a250565b600080600b5403611807576008549050611859565b600b54670de0b6b3a7640000600554600754611821611054565b61182b9190611e6b565b6118359190611e9f565b61183f9190611e9f565b6118499190611f10565b6008546118569190611f41565b90505b90565b600260009054906101000a900473ffffffffffffffffffffffffffffffffffffffff1681565b60085481565b6118d7600c60006118976119d6565b73ffffffffffffffffffffffffffffffffffffffff1673ffffffffffffffffffffffffffffffffffffffff168152602001908152602001600020546105a0565b565b60045481565b6118e76119d6565b73ffffffffffffffffffffffffffffffffffffffff166119056112f0565b73ffffffffffffffffffffffffffffffffffffffff161461195b576040517f08c379a0000000000000000000000000000000000000000000000000000000008152600401611952906121a4565b60405180910390fd5b600073ffffffffffffffffffffffffffffffffffffffff168173ffffffffffffffffffffffffffffffffffffffff16036119ca576040517f08c379a00000000000000000000000000000000000000000000000000000000081526004016119c1906125f8565b60405180910390fd5b6119d381611b75565b50565b600033905090565b6000600a60006119ec6119d6565b73ffffffffffffffffffffffffffffffffffffffff1673ffffffffffffffffffffffffffffffffffffffff1681526020019081526020016000205490506000811115611b72576000600a6000611a406119d6565b73ffffffffffffffffffffffffffffffffffffffff1673ffffffffffffffffffffffffffffffffffffffff16815260200190815260200160002081905550600260009054906101000a900473ffffffffffffffffffffffffffffffffffffffff1673ffffffffffffffffffffffffffffffffffffffff1663a9059cbb611ac46119d6565b836040518363ffffffff1660e01b8152600401611ae29291906120ca565b6020604051808303816000875af1158015611b01573d6000803e3d6000fd5b505050506040513d601f19601f82011682018060405250810190611b25919061212b565b5080611b2f6119d6565b73ffffffffffffffffffffffffffffffffffffffff167fe2403640ba68fed3a2f88b7557551d1993f84b99bb10ff833f0cf8db0c5e048660405160405180910390a35b50565b6000600160009054906101000a900473ffffffffffffffffffffffffffffffffffffffff16905081600160006101000a81548173ffffffffffffffffffffffffffffffffffffffff021916908373ffffffffffffffffffffffffffffffffffffffff1602179055508173ffffffffffffffffffffffffffffffffffffffff168173ffffffffffffffffffffffffffffffffffffffff167f8be0079c531659141344cd1fd0a4f28419497f9722a3daafe3b4186f6b6457e060405160405180910390a35050565b600080fd5b600073ffffffffffffffffffffffffffffffffffffffff82169050919050565b6000611c6b82611c40565b9050919050565b611c7b81611c60565b8114611c8657600080fd5b50565b600081359050611c9881611c72565b92915050565b600060208284031215611cb457611cb3611c3b565b5b6000611cc284828501611c89565b91505092915050565b6000819050919050565b611cde81611ccb565b82525050565b6000602082019050611cf96000830184611cd5565b92915050565b611d0881611ccb565b8114611d1357600080fd5b50565b600081359050611d2581611cff565b92915050565b600060208284031215611d4157611d40611c3b565b5b6000611d4f84828501611d16565b91505092915050565b6000819050919050565b6000611d7d611d78611d7384611c40565b611d58565b611c40565b9050919050565b6000611d8f82611d62565b9050919050565b6000611da182611d84565b9050919050565b611db181611d96565b82525050565b6000602082019050611dcc6000830184611da8565b92915050565b60008060408385031215611de957611de8611c3b565b5b6000611df785828601611c89565b9250506020611e0885828601611d16565b9150509250929050565b611e1b81611c60565b82525050565b6000602082019050611e366000830184611e12565b92915050565b7f4e487b7100000000000000000000000000000000000000000000000000000000600052601160045260246000fd5b6000611e7682611ccb565b9150611e8183611ccb565b9250828203905081811115611e9957611e98611e3c565b5b92915050565b6000611eaa82611ccb565b9150611eb583611ccb565b9250828202611ec381611ccb565b91508282048414831517611eda57611ed9611e3c565b5b5092915050565b7f4e487b7100000000000000000000000000000000000000000000000000000000600052601260045260246000fd5b6000611f1b82611ccb565b9150611f2683611ccb565b925082611f3657611f35611ee1565b5b828204905092915050565b6000611f4c82611ccb565b9150611f5783611ccb565b9250828201905080821115611f6f57611f6e611e3c565b5b92915050565b600082825260208201905092915050565b7f5265656e7472616e637947756172643a207265656e7472616e742063616c6c00600082015250565b6000611fbc601f83611f75565b9150611fc782611f86565b602082019050919050565b60006020820190508181036000830152611feb81611faf565b9050919050565b7f43616e6e6f742077697468647261772030000000000000000000000000000000600082015250565b6000612028601183611f75565b915061203382611ff2565b602082019050919050565b600060208201905081810360008301526120578161201b565b9050919050565b7f43616e6e6f74207769746864726177206d6f7265207468616e207374616b6564600082015250565b6000612094602083611f75565b915061209f8261205e565b602082019050919050565b600060208201905081810360008301526120c381612087565b9050919050565b60006040820190506120df6000830185611e12565b6120ec6020830184611cd5565b9392505050565b60008115159050919050565b612108816120f3565b811461211357600080fd5b50565b600081519050612125816120ff565b92915050565b60006020828403121561214157612140611c3b565b5b600061214f84828501612116565b91505092915050565b7f4f776e61626c653a2063616c6c6572206973206e6f7420746865206f776e6572600082015250565b600061218e602083611f75565b915061219982612158565b602082019050919050565b600060208201905081810360008301526121bd81612181565b9050919050565b6000815190506121d381611cff565b92915050565b6000602082840312156121ef576121ee611c3b565b5b60006121fd848285016121c4565b91505092915050565b7f50726f76696465642072657761726420746f6f20686967680000000000000000600082015250565b600061223c601883611f75565b915061224782612206565b602082019050919050565b6000602082019050818103600083015261226b8161222f565b9050919050565b7f43616e6e6f7420776974686472617720746865207374616b696e6720746f6b6560008201527f6e00000000000000000000000000000000000000000000000000000000000000602082015250565b60006122ce602183611f75565b91506122d982612272565b604082019050919050565b600060208201905081810360008301526122fd816122c1565b9050919050565b7f43616e6e6f74207769746864726177207468652072657761726420746f6b656e600082015250565b600061233a602083611f75565b915061234582612304565b602082019050919050565b600060208201905081810360008301526123698161232d565b9050919050565b7f43616e6e6f74207374616b652030000000000000000000000000000000000000600082015250565b60006123a6600e83611f75565b91506123b182612370565b602082019050919050565b600060208201905081810360008301526123d581612399565b9050919050565b60006040820190506123f16000830185611e12565b6123fe6020830184611e12565b9392505050565b7f5472616e73666572206f6620746f6b656e20686173206e6f74206265656e206160008201527f7070726f76656400000000000000000000000000000000000000000000000000602082015250565b6000612461602783611f75565b915061246c82612405565b604082019050919050565b6000602082019050818103600083015261249081612454565b9050919050565b60006060820190506124ac6000830186611e12565b6124b96020830185611e12565b6124c66040830184611cd5565b949350505050565b7f50726576696f7573207265776172647320706572696f64206d7573742062652060008201527f636f6d706c657465206265666f7265206368616e67696e67207468652064757260208201527f6174696f6e20666f7220746865206e657720706572696f640000000000000000604082015250565b6000612550605883611f75565b915061255b826124ce565b606082019050919050565b6000602082019050818103600083015261257f81612543565b9050919050565b7f4f776e61626c653a206e6577206f776e657220697320746865207a65726f206160008201527f6464726573730000000000000000000000000000000000000000000000000000602082015250565b60006125e2602683611f75565b91506125ed82612586565b604082019050919050565b60006020820190508181036000830152612611816125d5565b905091905056fea2646970667358221220b26a71638191556e3a3a6281a6457c6789a72bc4de3921959cd094154ceede4b64736f6c63430008110033",
  "linkReferences": {},
  "deployedLinkReferences": {}
}