{
  "_format": "hh-sol-artifact-1",
  "contractName": "SeedInvestorStaking",
  "sourceName": "contracts/Staking/SeedInvestorStaking.sol",
  "abi": [
    {
      "inputs": [
        {
          "internalType": "address",
          "name": "token",
          "type": "address"
        }
      ],
      "stateMutability": "nonpayable",
      "type": "constructor"
    },
    {
      "anonymous": false,
      "inputs": [
        {
          "indexed": true,
          "internalType": "address",
          "name": "previousOwner",
          "type": "address"
        },
        {
          "indexed": true,
          "internalType": "address",
          "name": "newOwner",
          "type": "address"
        }
      ],
      "name": "OwnershipTransferred",
      "type": "event"
    },
    {
      "anonymous": false,
      "inputs": [
        {
          "indexed": true,
          "internalType": "address",
          "name": "token",
          "type": "address"
        },
        {
          "indexed": true,
          "internalType": "uint256",
          "name": "amount",
          "type": "uint256"
        }
      ],
      "name": "Recovered",
      "type": "event"
    },
    {
      "anonymous": false,
      "inputs": [
        {
          "indexed": true,
          "internalType": "uint256",
          "name": "reward",
          "type": "uint256"
        }
      ],
      "name": "RewardAdded",
      "type": "event"
    },
    {
      "anonymous": false,
      "inputs": [
        {
          "indexed": true,
          "internalType": "address",
          "name": "user",
          "type": "address"
        },
        {
          "indexed": true,
          "internalType": "uint256",
          "name": "reward",
          "type": "uint256"
        }
      ],
      "name": "RewardPaid",
      "type": "event"
    },
    {
      "anonymous": false,
      "inputs": [
        {
          "indexed": true,
          "internalType": "uint256",
          "name": "newDuration",
          "type": "uint256"
        }
      ],
      "name": "RewardsDurationUpdated",
      "type": "event"
    },
    {
      "anonymous": false,
      "inputs": [
        {
          "indexed": true,
          "internalType": "address",
          "name": "user",
          "type": "address"
        },
        {
          "indexed": true,
          "internalType": "uint256",
          "name": "amount",
          "type": "uint256"
        }
      ],
      "name": "Staked",
      "type": "event"
    },
    {
      "anonymous": false,
      "inputs": [
        {
          "indexed": true,
          "internalType": "address",
          "name": "user",
          "type": "address"
        },
        {
          "indexed": true,
          "internalType": "uint256",
          "name": "amount",
          "type": "uint256"
        }
      ],
      "name": "Withdrawn",
      "type": "event"
    },
    {
      "inputs": [],
      "name": "Token",
      "outputs": [
        {
          "internalType": "contract IERC20",
          "name": "",
          "type": "address"
        }
      ],
      "stateMutability": "view",
      "type": "function"
    },
    {
      "inputs": [
        {
          "internalType": "address",
          "name": "account",
          "type": "address"
        }
      ],
      "name": "balanceOf",
      "outputs": [
        {
          "internalType": "uint256",
          "name": "",
          "type": "uint256"
        }
      ],
      "stateMutability": "view",
      "type": "function"
    },
    {
      "inputs": [
        {
          "internalType": "address",
          "name": "account",
          "type": "address"
        }
      ],
      "name": "earned",
      "outputs": [
        {
          "internalType": "uint256",
          "name": "",
          "type": "uint256"
        }
      ],
      "stateMutability": "view",
      "type": "function"
    },
    {
      "inputs": [],
      "name": "exit",
      "outputs": [],
      "stateMutability": "nonpayable",
      "type": "function"
    },
    {
      "inputs": [],
      "name": "getReward",
      "outputs": [],
      "stateMutability": "nonpayable",
      "type": "function"
    },
    {
      "inputs": [],
      "name": "getRewardForDuration",
      "outputs": [
        {
          "internalType": "uint256",
          "name": "",
          "type": "uint256"
        }
      ],
      "stateMutability": "view",
      "type": "function"
    },
    {
      "inputs": [],
      "name": "lastTimeRewardApplicable",
      "outputs": [
        {
          "internalType": "uint256",
          "name": "",
          "type": "uint256"
        }
      ],
      "stateMutability": "view",
      "type": "function"
    },
    {
      "inputs": [],
      "name": "lastUpdateTime",
      "outputs": [
        {
          "internalType": "uint256",
          "name": "",
          "type": "uint256"
        }
      ],
      "stateMutability": "view",
      "type": "function"
    },
    {
      "inputs": [],
      "name": "merkleRoot",
      "outputs": [
        {
          "internalType": "bytes32",
          "name": "",
          "type": "bytes32"
        }
      ],
      "stateMutability": "view",
      "type": "function"
    },
    {
      "inputs": [
        {
          "internalType": "uint256",
          "name": "reward",
          "type": "uint256"
        }
      ],
      "name": "notifyRewardAmount",
      "outputs": [],
      "stateMutability": "nonpayable",
      "type": "function"
    },
    {
      "inputs": [],
      "name": "owner",
      "outputs": [
        {
          "internalType": "address",
          "name": "",
          "type": "address"
        }
      ],
      "stateMutability": "view",
      "type": "function"
    },
    {
      "inputs": [],
      "name": "periodFinish",
      "outputs": [
        {
          "internalType": "uint256",
          "name": "",
          "type": "uint256"
        }
      ],
      "stateMutability": "view",
      "type": "function"
    },
    {
      "inputs": [
        {
          "internalType": "address",
          "name": "tokenAddress",
          "type": "address"
        },
        {
          "internalType": "uint256",
          "name": "tokenAmount",
          "type": "uint256"
        }
      ],
      "name": "recoverERC20",
      "outputs": [],
      "stateMutability": "nonpayable",
      "type": "function"
    },
    {
      "inputs": [],
      "name": "renounceOwnership",
      "outputs": [],
      "stateMutability": "nonpayable",
      "type": "function"
    },
    {
      "inputs": [],
      "name": "rewardPerToken",
      "outputs": [
        {
          "internalType": "uint256",
          "name": "",
          "type": "uint256"
        }
      ],
      "stateMutability": "view",
      "type": "function"
    },
    {
      "inputs": [],
      "name": "rewardPerTokenStored",
      "outputs": [
        {
          "internalType": "uint256",
          "name": "",
          "type": "uint256"
        }
      ],
      "stateMutability": "view",
      "type": "function"
    },
    {
      "inputs": [],
      "name": "rewardRate",
      "outputs": [
        {
          "internalType": "uint256",
          "name": "",
          "type": "uint256"
        }
      ],
      "stateMutability": "view",
      "type": "function"
    },
    {
      "inputs": [
        {
          "internalType": "address",
          "name": "",
          "type": "address"
        }
      ],
      "name": "rewards",
      "outputs": [
        {
          "internalType": "uint256",
          "name": "",
          "type": "uint256"
        }
      ],
      "stateMutability": "view",
      "type": "function"
    },
    {
      "inputs": [],
      "name": "rewardsDuration",
      "outputs": [
        {
          "internalType": "uint256",
          "name": "",
          "type": "uint256"
        }
      ],
      "stateMutability": "view",
      "type": "function"
    },
    {
      "inputs": [
        {
          "internalType": "bytes32",
          "name": "root",
          "type": "bytes32"
        }
      ],
      "name": "setMerkleRoot",
      "outputs": [],
      "stateMutability": "nonpayable",
      "type": "function"
    },
    {
      "inputs": [
        {
          "internalType": "uint256",
          "name": "_rewardsDuration",
          "type": "uint256"
        }
      ],
      "name": "setRewardsDuration",
      "outputs": [],
      "stateMutability": "nonpayable",
      "type": "function"
    },
    {
      "inputs": [
        {
          "internalType": "uint256",
          "name": "amount",
          "type": "uint256"
        },
        {
          "internalType": "bytes32[]",
          "name": "_merkleProof",
          "type": "bytes32[]"
        }
      ],
      "name": "stake",
      "outputs": [],
      "stateMutability": "nonpayable",
      "type": "function"
    },
    {
      "inputs": [],
      "name": "totalReward",
      "outputs": [
        {
          "internalType": "uint256",
          "name": "",
          "type": "uint256"
        }
      ],
      "stateMutability": "view",
      "type": "function"
    },
    {
      "inputs": [],
      "name": "totalStaked",
      "outputs": [
        {
          "internalType": "uint256",
          "name": "",
          "type": "uint256"
        }
      ],
      "stateMutability": "view",
      "type": "function"
    },
    {
      "inputs": [],
      "name": "totalStakers",
      "outputs": [
        {
          "internalType": "uint256",
          "name": "",
          "type": "uint256"
        }
      ],
      "stateMutability": "view",
      "type": "function"
    },
    {
      "inputs": [
        {
          "internalType": "address",
          "name": "newOwner",
          "type": "address"
        }
      ],
      "name": "transferOwnership",
      "outputs": [],
      "stateMutability": "nonpayable",
      "type": "function"
    },
    {
      "inputs": [
        {
          "internalType": "address",
          "name": "",
          "type": "address"
        }
      ],
      "name": "userRewardPerTokenPaid",
      "outputs": [
        {
          "internalType": "uint256",
          "name": "",
          "type": "uint256"
        }
      ],
      "stateMutability": "view",
      "type": "function"
    },
    {
      "inputs": [
        {
          "internalType": "uint256",
          "name": "amount",
          "type": "uint256"
        }
      ],
      "name": "withdraw",
      "outputs": [],
      "stateMutability": "nonpayable",
      "type": "function"
    }
  ],
  "bytecode": "0x6080604052600060035562093a806009556000600a556000600b553480156200002757600080fd5b5060405162002eed38038062002eed83398181016040528101906200004d9190620001f5565b60016000819055506200007562000069620000bd60201b60201c565b620000c560201b60201c565b80600260006101000a81548173ffffffffffffffffffffffffffffffffffffffff021916908373ffffffffffffffffffffffffffffffffffffffff1602179055505062000227565b600033905090565b6000600160009054906101000a900473ffffffffffffffffffffffffffffffffffffffff16905081600160006101000a81548173ffffffffffffffffffffffffffffffffffffffff021916908373ffffffffffffffffffffffffffffffffffffffff1602179055508173ffffffffffffffffffffffffffffffffffffffff168173ffffffffffffffffffffffffffffffffffffffff167f8be0079c531659141344cd1fd0a4f28419497f9722a3daafe3b4186f6b6457e060405160405180910390a35050565b600080fd5b600073ffffffffffffffffffffffffffffffffffffffff82169050919050565b6000620001bd8262000190565b9050919050565b620001cf81620001b0565b8114620001db57600080fd5b50565b600081519050620001ef81620001c4565b92915050565b6000602082840312156200020e576200020d6200018b565b5b60006200021e84828501620001de565b91505092915050565b612cb680620002376000396000f3fe608060405234801561001057600080fd5b50600436106101c35760003560e01c8063817b1cd2116100f9578063c8f33c9111610097578063df136d6511610071578063df136d65146104ac578063e9fad8ee146104ca578063ebe2b12b146104d4578063f2fde38b146104f2576101c3565b8063c8f33c9114610454578063cc1a378f14610472578063cd3daf9d1461048e576101c3565b80638b876347116100d35780638b876347146103cc5780638da5cb5b146103fc578063a4eb3aaf1461041a578063c241267614610436576101c3565b8063817b1cd21461037457806386989038146103925780638980f11f146103b0576101c3565b80633d18b91211610166578063750142e611610140578063750142e6146102fe5780637b0a47ee1461031c5780637cb647591461033a57806380faa57d14610356576101c3565b80633d18b912146102ba57806370a08231146102c4578063715018a6146102f4576101c3565b80632e1a7d4d116101a25780632e1a7d4d146102465780632eb4a7ab14610262578063386a9525146102805780633c6b16ab1461029e576101c3565b80628cc262146101c85780630700037d146101f85780631c1f78eb14610228575b600080fd5b6101e260048036038101906101dd91906120da565b61050e565b6040516101ef9190612120565b60405180910390f35b610212600480360381019061020d91906120da565b610610565b60405161021f9190612120565b60405180910390f35b610230610628565b60405161023d9190612120565b60405180910390f35b610260600480360381019061025b9190612167565b61063f565b005b61026a610a71565b60405161027791906121ad565b60405180910390f35b610288610a77565b6040516102959190612120565b60405180910390f35b6102b860048036038101906102b39190612167565b610a7d565b005b6102c2610dab565b005b6102de60048036038101906102d991906120da565b61109c565b6040516102eb9190612120565b60405180910390f35b6102fc6110e5565b005b61030661116d565b6040516103139190612120565b60405180910390f35b610324611173565b6040516103319190612120565b60405180910390f35b610354600480360381019061034f91906121f4565b611179565b005b61035e6111ff565b60405161036b9190612120565b60405180910390f35b61037c611219565b6040516103899190612120565b60405180910390f35b61039a61121f565b6040516103a79190612120565b60405180910390f35b6103ca60048036038101906103c59190612221565b611225565b005b6103e660048036038101906103e191906120da565b611536565b6040516103f39190612120565b60405180910390f35b61040461154e565b6040516104119190612270565b60405180910390f35b610434600480360381019061042f91906122f0565b611578565b005b61043e611a87565b60405161044b91906123af565b60405180910390f35b61045c611aad565b6040516104699190612120565b60405180910390f35b61048c60048036038101906104879190612167565b611ab3565b005b610496611bac565b6040516104a39190612120565b60405180910390f35b6104b4611c16565b6040516104c19190612120565b60405180910390f35b6104d2611c1c565b005b6104dc611c6d565b6040516104e99190612120565b60405180910390f35b61050c600480360381019061050791906120da565b611c73565b005b6000600d60008373ffffffffffffffffffffffffffffffffffffffff1673ffffffffffffffffffffffffffffffffffffffff16815260200190815260200160002054670de0b6b3a7640000600c60008573ffffffffffffffffffffffffffffffffffffffff1673ffffffffffffffffffffffffffffffffffffffff168152602001908152602001600020546105a1611bac565b6105ab91906123f9565b600e60008673ffffffffffffffffffffffffffffffffffffffff1673ffffffffffffffffffffffffffffffffffffffff168152602001908152602001600020546105f5919061242d565b6105ff919061249e565b61060991906124cf565b9050919050565b600d6020528060005260406000206000915090505481565b6000600954600a5461063a919061242d565b905090565b600260005403610684576040517f08c379a000000000000000000000000000000000000000000000000000000000815260040161067b90612560565b60405180910390fd5b6002600081905550610694611d6a565b61069c611bac565b6006819055506106aa6111ff565b600781905550600073ffffffffffffffffffffffffffffffffffffffff168173ffffffffffffffffffffffffffffffffffffffff1614610777576106ed8161050e565b600d60008373ffffffffffffffffffffffffffffffffffffffff1673ffffffffffffffffffffffffffffffffffffffff16815260200190815260200160002081905550600654600c60008373ffffffffffffffffffffffffffffffffffffffff1673ffffffffffffffffffffffffffffffffffffffff168152602001908152602001600020819055505b600082116107ba576040517f08c379a00000000000000000000000000000000000000000000000000000000081526004016107b1906125cc565b60405180910390fd5b81600e60006107c7611d6a565b73ffffffffffffffffffffffffffffffffffffffff1673ffffffffffffffffffffffffffffffffffffffff168152602001908152602001600020541015610843576040517f08c379a000000000000000000000000000000000000000000000000000000000815260040161083a90612638565b60405180910390fd5b816005600082825461085591906123f9565b92505081905550600e6000610868611d6a565b73ffffffffffffffffffffffffffffffffffffffff1673ffffffffffffffffffffffffffffffffffffffff1681526020019081526020016000205482036108c4576001600460008282546108bc91906123f9565b925050819055505b81600e60006108d1611d6a565b73ffffffffffffffffffffffffffffffffffffffff1673ffffffffffffffffffffffffffffffffffffffff168152602001908152602001600020600082825461091a91906123f9565b92505081905550600260009054906101000a900473ffffffffffffffffffffffffffffffffffffffff1673ffffffffffffffffffffffffffffffffffffffff1663a9059cbb610967611d6a565b846040518363ffffffff1660e01b8152600401610985929190612658565b6020604051808303816000875af11580156109a4573d6000803e3d6000fd5b505050506040513d601f19601f820116820180604052508101906109c891906126b9565b506000600d60006109d7611d6a565b73ffffffffffffffffffffffffffffffffffffffff1673ffffffffffffffffffffffffffffffffffffffff168152602001908152602001600020541115610a2157610a20611d72565b5b813373ffffffffffffffffffffffffffffffffffffffff167f7084f5476618d8e60b11ef0d7d3f06914655adb8793e28ff7f018d4c76d505d560405160405180910390a350600160008190555050565b600b5481565b60095481565b610a85611d6a565b73ffffffffffffffffffffffffffffffffffffffff16610aa361154e565b73ffffffffffffffffffffffffffffffffffffffff1614610af9576040517f08c379a0000000000000000000000000000000000000000000000000000000008152600401610af090612732565b60405180910390fd5b6000610b03611bac565b600681905550610b116111ff565b600781905550600073ffffffffffffffffffffffffffffffffffffffff168173ffffffffffffffffffffffffffffffffffffffff1614610bde57610b548161050e565b600d60008373ffffffffffffffffffffffffffffffffffffffff1673ffffffffffffffffffffffffffffffffffffffff16815260200190815260200160002081905550600654600c60008373ffffffffffffffffffffffffffffffffffffffff1673ffffffffffffffffffffffffffffffffffffffff168152602001908152602001600020819055505b6003544210610c005760095482610bf5919061249e565b600a81905550610c46565b600042600354610c1091906123f9565b90506000600a5482610c22919061242d565b90506009548185610c3391906124cf565b610c3d919061249e565b600a8190555050505b6000600554600260009054906101000a900473ffffffffffffffffffffffffffffffffffffffff1673ffffffffffffffffffffffffffffffffffffffff166370a08231306040518263ffffffff1660e01b8152600401610ca69190612270565b602060405180830381865afa158015610cc3573d6000803e3d6000fd5b505050506040513d601f19601f82011682018060405250810190610ce79190612767565b610cf191906123f9565b905060095481610d01919061249e565b600a541115610d45576040517f08c379a0000000000000000000000000000000000000000000000000000000008152600401610d3c906127e0565b60405180910390fd5b4260078190555060095442610d5a91906124cf565b6003819055508260086000828254610d7291906124cf565b92505081905550827fde88a922e0d3b88b24e9623efeb464919c6bf9f66857a65e2bfcf2ce87a9433d60405160405180910390a2505050565b600260005403610df0576040517f08c379a0000000000000000000000000000000000000000000000000000000008152600401610de790612560565b60405180910390fd5b6002600081905550610e00611d6a565b610e08611bac565b600681905550610e166111ff565b600781905550600073ffffffffffffffffffffffffffffffffffffffff168173ffffffffffffffffffffffffffffffffffffffff1614610ee357610e598161050e565b600d60008373ffffffffffffffffffffffffffffffffffffffff1673ffffffffffffffffffffffffffffffffffffffff16815260200190815260200160002081905550600654600c60008373ffffffffffffffffffffffffffffffffffffffff1673ffffffffffffffffffffffffffffffffffffffff168152602001908152602001600020819055505b6000600d6000610ef1611d6a565b73ffffffffffffffffffffffffffffffffffffffff1673ffffffffffffffffffffffffffffffffffffffff1681526020019081526020016000205490506000811115611090576000600d6000610f45611d6a565b73ffffffffffffffffffffffffffffffffffffffff1673ffffffffffffffffffffffffffffffffffffffff168152602001908152602001600020819055508060086000828254610f9591906123f9565b92505081905550600260009054906101000a900473ffffffffffffffffffffffffffffffffffffffff1673ffffffffffffffffffffffffffffffffffffffff1663a9059cbb610fe2611d6a565b836040518363ffffffff1660e01b8152600401611000929190612658565b6020604051808303816000875af115801561101f573d6000803e3d6000fd5b505050506040513d601f19601f8201168201806040525081019061104391906126b9565b508061104d611d6a565b73ffffffffffffffffffffffffffffffffffffffff167fe2403640ba68fed3a2f88b7557551d1993f84b99bb10ff833f0cf8db0c5e048660405160405180910390a35b50506001600081905550565b6000600e60008373ffffffffffffffffffffffffffffffffffffffff1673ffffffffffffffffffffffffffffffffffffffff168152602001908152602001600020549050919050565b6110ed611d6a565b73ffffffffffffffffffffffffffffffffffffffff1661110b61154e565b73ffffffffffffffffffffffffffffffffffffffff1614611161576040517f08c379a000000000000000000000000000000000000000000000000000000000815260040161115890612732565b60405180910390fd5b61116b6000611f09565b565b60085481565b600a5481565b611181611d6a565b73ffffffffffffffffffffffffffffffffffffffff1661119f61154e565b73ffffffffffffffffffffffffffffffffffffffff16146111f5576040517f08c379a00000000000000000000000000000000000000000000000000000000081526004016111ec90612732565b60405180910390fd5b80600b8190555050565b6000600354421061121257600354611214565b425b905090565b60055481565b60045481565b61122d611d6a565b73ffffffffffffffffffffffffffffffffffffffff1661124b61154e565b73ffffffffffffffffffffffffffffffffffffffff16146112a1576040517f08c379a000000000000000000000000000000000000000000000000000000000815260040161129890612732565b60405180910390fd5b600260009054906101000a900473ffffffffffffffffffffffffffffffffffffffff1673ffffffffffffffffffffffffffffffffffffffff168273ffffffffffffffffffffffffffffffffffffffff16036114675780600854101561133b576040517f08c379a000000000000000000000000000000000000000000000000000000000815260040161133290612872565b60405180910390fd5b806008600082825461134d91906123f9565b92505081905550600260009054906101000a900473ffffffffffffffffffffffffffffffffffffffff1673ffffffffffffffffffffffffffffffffffffffff1663a9059cbb61139a61154e565b836040518363ffffffff1660e01b81526004016113b8929190612658565b6020604051808303816000875af11580156113d7573d6000803e3d6000fd5b505050506040513d601f19601f820116820180604052508101906113fb91906126b9565b5080600260009054906101000a900473ffffffffffffffffffffffffffffffffffffffff1673ffffffffffffffffffffffffffffffffffffffff167f8c1256b8896378cd5044f80c202f9772b9d77dc85c8a6eb51967210b09bfaa2860405160405180910390a3611532565b8173ffffffffffffffffffffffffffffffffffffffff1663a9059cbb61148b61154e565b836040518363ffffffff1660e01b81526004016114a9929190612658565b6020604051808303816000875af11580156114c8573d6000803e3d6000fd5b505050506040513d601f19601f820116820180604052508101906114ec91906126b9565b50808273ffffffffffffffffffffffffffffffffffffffff167f8c1256b8896378cd5044f80c202f9772b9d77dc85c8a6eb51967210b09bfaa2860405160405180910390a35b5050565b600c6020528060005260406000206000915090505481565b6000600160009054906101000a900473ffffffffffffffffffffffffffffffffffffffff16905090565b6002600054036115bd576040517f08c379a00000000000000000000000000000000000000000000000000000000081526004016115b490612560565b60405180910390fd5b60026000819055506115cd611d6a565b6115d5611bac565b6006819055506115e36111ff565b600781905550600073ffffffffffffffffffffffffffffffffffffffff168173ffffffffffffffffffffffffffffffffffffffff16146116b0576116268161050e565b600d60008373ffffffffffffffffffffffffffffffffffffffff1673ffffffffffffffffffffffffffffffffffffffff16815260200190815260200160002081905550600654600c60008373ffffffffffffffffffffffffffffffffffffffff1673ffffffffffffffffffffffffffffffffffffffff168152602001908152602001600020819055505b600084116116f3576040517f08c379a00000000000000000000000000000000000000000000000000000000081526004016116ea906128de565b60405180910390fd5b6000600b54146117be576000611707611d6a565b6040516020016117179190612946565b60405160208183030381529060405280519060200120905061177d848480806020026020016040519081016040528093929190818152602001838360200280828437600081840152601f19601f82011690508083019250505050505050600b5483611fcf565b6117bc576040517f08c379a00000000000000000000000000000000000000000000000000000000081526004016117b3906129ad565b60405180910390fd5b505b83600260009054906101000a900473ffffffffffffffffffffffffffffffffffffffff1673ffffffffffffffffffffffffffffffffffffffff1663dd62ed3e611805611d6a565b306040518363ffffffff1660e01b81526004016118239291906129cd565b602060405180830381865afa158015611840573d6000803e3d6000fd5b505050506040513d601f19601f820116820180604052508101906118649190612767565b10156118a5576040517f08c379a000000000000000000000000000000000000000000000000000000000815260040161189c90612a68565b60405180910390fd5b6000600e60006118b3611d6a565b73ffffffffffffffffffffffffffffffffffffffff1673ffffffffffffffffffffffffffffffffffffffff168152602001908152602001600020540361190e5760016004600082825461190691906124cf565b925050819055505b836005600082825461192091906124cf565b9250508190555083600e6000611934611d6a565b73ffffffffffffffffffffffffffffffffffffffff1673ffffffffffffffffffffffffffffffffffffffff168152602001908152602001600020600082825461197d91906124cf565b92505081905550600260009054906101000a900473ffffffffffffffffffffffffffffffffffffffff1673ffffffffffffffffffffffffffffffffffffffff166323b872dd6119ca611d6a565b30876040518463ffffffff1660e01b81526004016119ea93929190612a88565b6020604051808303816000875af1158015611a09573d6000803e3d6000fd5b505050506040513d601f19601f82011682018060405250810190611a2d91906126b9565b5083611a37611d6a565b73ffffffffffffffffffffffffffffffffffffffff167f9e71bc8eea02a63969f509818f2dafb9254532904319f9dbda79b67bd34a5f3d60405160405180910390a3506001600081905550505050565b600260009054906101000a900473ffffffffffffffffffffffffffffffffffffffff1681565b60075481565b611abb611d6a565b73ffffffffffffffffffffffffffffffffffffffff16611ad961154e565b73ffffffffffffffffffffffffffffffffffffffff1614611b2f576040517f08c379a0000000000000000000000000000000000000000000000000000000008152600401611b2690612732565b60405180910390fd5b6003544211611b73576040517f08c379a0000000000000000000000000000000000000000000000000000000008152600401611b6a90612b57565b60405180910390fd5b806009819055506009547ffb46ca5a5e06d4540d6387b930a7c978bce0db5f449ec6b3f5d07c6e1d44f2d360405160405180910390a250565b60008060055403611bc1576006549050611c13565b600554670de0b6b3a7640000600a54600754611bdb6111ff565b611be591906123f9565b611bef919061242d565b611bf9919061242d565b611c03919061249e565b600654611c1091906124cf565b90505b90565b60065481565b611c6b600e6000611c2b611d6a565b73ffffffffffffffffffffffffffffffffffffffff1673ffffffffffffffffffffffffffffffffffffffff1681526020019081526020016000205461063f565b565b60035481565b611c7b611d6a565b73ffffffffffffffffffffffffffffffffffffffff16611c9961154e565b73ffffffffffffffffffffffffffffffffffffffff1614611cef576040517f08c379a0000000000000000000000000000000000000000000000000000000008152600401611ce690612732565b60405180910390fd5b600073ffffffffffffffffffffffffffffffffffffffff168173ffffffffffffffffffffffffffffffffffffffff1603611d5e576040517f08c379a0000000000000000000000000000000000000000000000000000000008152600401611d5590612be9565b60405180910390fd5b611d6781611f09565b50565b600033905090565b6000600d6000611d80611d6a565b73ffffffffffffffffffffffffffffffffffffffff1673ffffffffffffffffffffffffffffffffffffffff1681526020019081526020016000205490506000811115611f06576000600d6000611dd4611d6a565b73ffffffffffffffffffffffffffffffffffffffff1673ffffffffffffffffffffffffffffffffffffffff16815260200190815260200160002081905550600260009054906101000a900473ffffffffffffffffffffffffffffffffffffffff1673ffffffffffffffffffffffffffffffffffffffff1663a9059cbb611e58611d6a565b836040518363ffffffff1660e01b8152600401611e76929190612658565b6020604051808303816000875af1158015611e95573d6000803e3d6000fd5b505050506040513d601f19601f82011682018060405250810190611eb991906126b9565b5080611ec3611d6a565b73ffffffffffffffffffffffffffffffffffffffff167fe2403640ba68fed3a2f88b7557551d1993f84b99bb10ff833f0cf8db0c5e048660405160405180910390a35b50565b6000600160009054906101000a900473ffffffffffffffffffffffffffffffffffffffff16905081600160006101000a81548173ffffffffffffffffffffffffffffffffffffffff021916908373ffffffffffffffffffffffffffffffffffffffff1602179055508173ffffffffffffffffffffffffffffffffffffffff168173ffffffffffffffffffffffffffffffffffffffff167f8be0079c531659141344cd1fd0a4f28419497f9722a3daafe3b4186f6b6457e060405160405180910390a35050565b600082611fdc8584611fe6565b1490509392505050565b60008082905060005b845181101561205057600085828151811061200d5761200c612c09565b5b6020026020010151905080831161202f57612028838261205b565b925061203c565b612039818461205b565b92505b50808061204890612c38565b915050611fef565b508091505092915050565b600082600052816020526040600020905092915050565b600080fd5b600080fd5b600073ffffffffffffffffffffffffffffffffffffffff82169050919050565b60006120a78261207c565b9050919050565b6120b78161209c565b81146120c257600080fd5b50565b6000813590506120d4816120ae565b92915050565b6000602082840312156120f0576120ef612072565b5b60006120fe848285016120c5565b91505092915050565b6000819050919050565b61211a81612107565b82525050565b60006020820190506121356000830184612111565b92915050565b61214481612107565b811461214f57600080fd5b50565b6000813590506121618161213b565b92915050565b60006020828403121561217d5761217c612072565b5b600061218b84828501612152565b91505092915050565b6000819050919050565b6121a781612194565b82525050565b60006020820190506121c2600083018461219e565b92915050565b6121d181612194565b81146121dc57600080fd5b50565b6000813590506121ee816121c8565b92915050565b60006020828403121561220a57612209612072565b5b6000612218848285016121df565b91505092915050565b6000806040838503121561223857612237612072565b5b6000612246858286016120c5565b925050602061225785828601612152565b9150509250929050565b61226a8161209c565b82525050565b60006020820190506122856000830184612261565b92915050565b600080fd5b600080fd5b600080fd5b60008083601f8401126122b0576122af61228b565b5b8235905067ffffffffffffffff8111156122cd576122cc612290565b5b6020830191508360208202830111156122e9576122e8612295565b5b9250929050565b60008060006040848603121561230957612308612072565b5b600061231786828701612152565b935050602084013567ffffffffffffffff81111561233857612337612077565b5b6123448682870161229a565b92509250509250925092565b6000819050919050565b600061237561237061236b8461207c565b612350565b61207c565b9050919050565b60006123878261235a565b9050919050565b60006123998261237c565b9050919050565b6123a98161238e565b82525050565b60006020820190506123c460008301846123a0565b92915050565b7f4e487b7100000000000000000000000000000000000000000000000000000000600052601160045260246000fd5b600061240482612107565b915061240f83612107565b9250828203905081811115612427576124266123ca565b5b92915050565b600061243882612107565b915061244383612107565b925082820261245181612107565b91508282048414831517612468576124676123ca565b5b5092915050565b7f4e487b7100000000000000000000000000000000000000000000000000000000600052601260045260246000fd5b60006124a982612107565b91506124b483612107565b9250826124c4576124c361246f565b5b828204905092915050565b60006124da82612107565b91506124e583612107565b92508282019050808211156124fd576124fc6123ca565b5b92915050565b600082825260208201905092915050565b7f5265656e7472616e637947756172643a207265656e7472616e742063616c6c00600082015250565b600061254a601f83612503565b915061255582612514565b602082019050919050565b600060208201905081810360008301526125798161253d565b9050919050565b7f43616e6e6f742077697468647261772030000000000000000000000000000000600082015250565b60006125b6601183612503565b91506125c182612580565b602082019050919050565b600060208201905081810360008301526125e5816125a9565b9050919050565b7f43616e6e6f74207769746864726177206d6f7265207468616e207374616b6564600082015250565b6000612622602083612503565b915061262d826125ec565b602082019050919050565b6000602082019050818103600083015261265181612615565b9050919050565b600060408201905061266d6000830185612261565b61267a6020830184612111565b9392505050565b60008115159050919050565b61269681612681565b81146126a157600080fd5b50565b6000815190506126b38161268d565b92915050565b6000602082840312156126cf576126ce612072565b5b60006126dd848285016126a4565b91505092915050565b7f4f776e61626c653a2063616c6c6572206973206e6f7420746865206f776e6572600082015250565b600061271c602083612503565b9150612727826126e6565b602082019050919050565b6000602082019050818103600083015261274b8161270f565b9050919050565b6000815190506127618161213b565b92915050565b60006020828403121561277d5761277c612072565b5b600061278b84828501612752565b91505092915050565b7f50726f76696465642072657761726420746f6f20686967680000000000000000600082015250565b60006127ca601883612503565b91506127d582612794565b602082019050919050565b600060208201905081810360008301526127f9816127bd565b9050919050565b7f43616e6e6f74207769746864726177206d6f7265207468616e2072657761726460008201527f7320617661696c61626c65000000000000000000000000000000000000000000602082015250565b600061285c602b83612503565b915061286782612800565b604082019050919050565b6000602082019050818103600083015261288b8161284f565b9050919050565b7f43616e6e6f74207374616b652030000000000000000000000000000000000000600082015250565b60006128c8600e83612503565b91506128d382612892565b602082019050919050565b600060208201905081810360008301526128f7816128bb565b9050919050565b60008160601b9050919050565b6000612916826128fe565b9050919050565b60006129288261290b565b9050919050565b61294061293b8261209c565b61291d565b82525050565b6000612952828461292f565b60148201915081905092915050565b7f496e636f72726563742070726f6f660000000000000000000000000000000000600082015250565b6000612997600f83612503565b91506129a282612961565b602082019050919050565b600060208201905081810360008301526129c68161298a565b9050919050565b60006040820190506129e26000830185612261565b6129ef6020830184612261565b9392505050565b7f5472616e73666572206f6620746f6b656e20686173206e6f74206265656e206160008201527f7070726f76656400000000000000000000000000000000000000000000000000602082015250565b6000612a52602783612503565b9150612a5d826129f6565b604082019050919050565b60006020820190508181036000830152612a8181612a45565b9050919050565b6000606082019050612a9d6000830186612261565b612aaa6020830185612261565b612ab76040830184612111565b949350505050565b7f50726576696f7573207265776172647320706572696f64206d7573742062652060008201527f636f6d706c657465206265666f7265206368616e67696e67207468652064757260208201527f6174696f6e20666f7220746865206e657720706572696f640000000000000000604082015250565b6000612b41605883612503565b9150612b4c82612abf565b606082019050919050565b60006020820190508181036000830152612b7081612b34565b9050919050565b7f4f776e61626c653a206e6577206f776e657220697320746865207a65726f206160008201527f6464726573730000000000000000000000000000000000000000000000000000602082015250565b6000612bd3602683612503565b9150612bde82612b77565b604082019050919050565b60006020820190508181036000830152612c0281612bc6565b9050919050565b7f4e487b7100000000000000000000000000000000000000000000000000000000600052603260045260246000fd5b6000612c4382612107565b91507fffffffffffffffffffffffffffffffffffffffffffffffffffffffffffffffff8203612c7557612c746123ca565b5b60018201905091905056fea26469706673582212206d6aba48f0a2382de506edec7e4aa719b7c301824d52c82d06e1e74897ee3e1864736f6c63430008110033",
  "linkReferences": {},
  "deployedLinkReferences": {}
}